S0220000687474703A2F2F737265636F72642E736F75726365666F7267652E6E65742F1D
S123000000300020D50000004301000009200000000000000000000000000000000000004A
S1230020000000000000000000000000470100000000000000000000490100004B010000DE
S12300404F010000570100005F010000670100006F010000770100007F010000870100003C
S12300608F010000970100009F010000A7010000B1050000B7010000BF010000C701000016
S1230080CF010000D7010000DF010000E7010000EF010000F7010000FF01000007020000FB
S12300A00F020000170200001F020000270200002F020000370200003F02000047020000D4
S12300C09860000080F0FF1F40000000C0F0FF1FE802000010B572B601F0EAFF0D4B07E098
S12300E0186859681C000C349A6800F019F82300094A9342F4D306E018681C0008345968CB
S123010000F017F82300054A9342F5D362B603F0A2FDFEE7C0000000CC000000D4000000DE
S123012010B5002302E010C810C104339342FAD310BD002302E0002204C004338B42FAD3E6
S12301407047FEE7FEE7FEE7FEE7FEE7FEE710B5FFF7FCFF10BD10B5FFF7F8FF10BD10B5BF
S1230160FFF7F4FF10BD10B5FFF7F0FF10BD10B5FFF7ECFF10BD10B5FFF7E8FF10BD10B5A7
S1230180FFF7E4FF10BD10B5FFF7E0FF10BD10B5FFF7DCFF10BD10B5FFF7D8FF10BD10B5C7
S12301A0FFF7D4FF10BD10B5FFF7D0FF10BD10B5FFF7CCFF10BD10B5FFF7C8FF10BD10B5E7
S12301C0FFF7C4FF10BD10B5FFF7C0FF10BD10B5FFF7BCFF10BD10B5FFF7B8FF10BD10B507
S12301E0FFF7B4FF10BD10B5FFF7B0FF10BD10B5FFF7ACFF10BD10B5FFF7A8FF10BD10B527
S1230200FFF7A4FF10BD10B5FFF7A0FF10BD10B5FFF79CFF10BD10B5FFF798FF10BD10B546
S1230220FFF794FF10BD10B5FFF790FF10BD10B5FFF78CFF10BD10B5FFF788FF10BD10B566
S1230240FFF784FF10BD10B5FFF780FF10BDFFFFFFFFFFFFFFFFFFFFFFFFFFFFFFFFFFFF5F
S1230260FFFFFFFFFFFFFFFFFFFFFFFFFFFFFFFFFFFFFFFFFFFFFFFFFFFFFFFFFFFFFFFF9A
S1230280FFFFFFFFFFFFFFFFFFFFFFFFFFFFFFFFFFFFFFFFFFFFFFFFFFFFFFFFFFFFFFFF7A
S12302A0FFFFFFFFFFFFFFFFFFFFFFFFFFFFFFFFFFFFFFFFFFFFFFFFFFFFFFFFFFFFFFFF5A
S12302C0FFFFFFFFFFFFFFFFFFFFFFFFFFFFFFFFFFFFFFFFFFFFFFFFFFFFFFFFFFFFFFFF3A
S12302E0FFFFFFFFFFFFFFFFFFFFFFFFFFFFFFFFFFFFFFFFFFFFFFFFFFFFFFFFFFFFFFFF1A
S1230300FFFFFFFFFFFFFFFFFFFFFFFFFFFFFFFFFFFFFFFFFFFFFFFFFFFFFFFFFFFFFFFFF9
S1230320FFFFFFFFFFFFFFFFFFFFFFFFFFFFFFFFFFFFFFFFFFFFFFFFFFFFFFFFFFFFFFFFD9
S1230340FFFFFFFFFFFFFFFFFFFFFFFFFFFFFFFFFFFFFFFFFFFFFFFFFFFFFFFFFFFFFFFFB9
S1230360FFFFFFFFFFFFFFFFFFFFFFFFFFFFFFFFFFFFFFFFFFFFFFFFFFFFFFFFFFFFFFFF99
S1230380FFFFFFFFFFFFFFFFFFFFFFFFFFFFFFFFFFFFFFFFFFFFFFFFFFFFFFFFFFFFFFFF79
S12303A0FFFFFFFFFFFFFFFFFFFFFFFFFFFFFFFFFFFFFFFFFFFFFFFFFFFFFFFFFFFFFFFF59
S12303C0FFFFFFFFFFFFFFFFFFFFFFFFFFFFFFFFFFFFFFFFFFFFFFFFFFFFFFFFFFFFFFFF39
S12303E0FFFFFFFFFFFFFFFFFFFFFFFFFFFFFFFFFFFFFFFFFFFFFFFFFFFFFFFFFFFFFFFF19
S1230400FFFFFFFFFFFFFFFFFFFFFFFFFEFFFFFF80B582B000AF0200FB1D1A70FB1D1B7884
S12304201A001F231A40044B012191400A001A60C046BD4602B080BD00E100E080B582B01C
S123044000AF0200FB1D1A70FB1D1B781A001F231340054901229A40C0235B00CA50C04642
S1230460BD4602B080BDC04600E100E090B583B000AF02003960FB1D1A70FB1D1B787F2B06
S123048032D92F4AFB1D1B7819000F230B40083B9B0806339B00D31804331B68FA1D127893
S12304A0110003220A40D200FF2191400A00D2431A4011003B689B01FF221A40FB1D1B7806
S12304C0180003230340DB009A401D48FB1D1B781C000F232340083B9B080A4306339B001A
S12304E0C31804331A6027E0164AFB1D1B785BB29B08C0339B009B58FA1D12781100032252
S12305000A40D200FF2191400A00D2431A4011003B689B01FF221A40FB1D1B78180003239D
S12305200340DB009A400748FB1D1B785BB29B080A43C0339B001A50C046BD4603B090BDC7
S123054000ED00E000E100E080B582B000AF0200FB1D1A70084BDB78DAB2FB1D1B78DB0097
S1230560DBB208210B40DBB203491343DBB2CB70C046BD4602B080BD00A0064080B582B03A
S123058000AF0200FB1D1A70084BDB78DAB2FB1D1B789B00DBB204210B40DBB20349134360
S12305A0DBB2CB70C046BD4602B080BD00A0064080B582B000AF1C4B1B79DBB21A00202396
S12305C013400BD0184BDB79DAB2FB1D1A70F91D164B0122180003F0FDF922E0124B1B7976
S12305E0DBB25BB2002B1CDAB91D114B0122180003F03EFA031E04D00B4ABB1D1B78D371AB
S12306000FE0094BDB78DBB2074A7F210B40DBB2D370054BDB78DBB2034A20210B43DBB20E
S1230620D370BD4602B080BD00A00640C0F0FF1FCCF1FF1F80B584B000AF7860494A4A4BDA
S1230640D35848498022D2001343474A8B50454A464BD3584349802292001343434A8B50DB
S1230660404A434BD3583F498022D2041343404A8B503C4A3B493F4BD3583E4A8B50002036
S1230680FFF762FF0020FFF779FF3B4B3B4A5A60394B3A4A9A603A4B00221A70384B0022D4
S12306A05A70374B9B7ADBB2354A0F210B43DBB293727A6813001B019B1A1900314803F06E
S12306C010FB03001A000E203B181A802C4B5B78DAB23B181B88DBB229491343DBB24B706A
S12306E0274B1B78DAB23B181B881B0A9BB2DBB21F210B40DBB21343DBB2214A20210B437B
S1230700DBB213701E4B00229A7080235B009AB21D491E4B180003F03AF980235B009AB28F
S12307201B491C4B180003F032F902210C20FFF79DFE0C20FFF782FE0C20FFF769FE104B4E
S1230740DB78DBB20E4A20210B43DBB2D3700120FFF7FAFE0120FFF711FFC046BD4604B00B
S123076080BDC04600700440341000003810000004100000101000000090044000020001E7
S123078000A0064000366E01D8F1FF1FC0F0FF1FCCF0FF1FCCF1FF1F80B582B000AF786072
S12307A039603A687968084B180003F013F9074BDB78DBB20549802252421343DBB2CB70DB
S12307C0C046BD4602B080BDCCF1FF1F00A0064080B582B000AF78607968054B0122180002
S12307E003F046F903001800BD4602B080BDC046C0F0FF1F90B5DA4CA54400AFD94BDA4A97
S1230800BA1813608023DB0081221201B9180B60BB181B689AB23900D44B180003F0B7F86B
S1230820D24B180003F07EF90300D14ABA181360CE4B180003F06CF9031E03D0CD4B180005
S123084001F042FCCA4BFB181A688023DB00F918C64B180003F00CF9031E03D0C64B1800EE
S123086001F032FC8023DB00F918C04B0122180003F0FEF8031E03D0C04B180001F024FC6F
S1230880B94BFB181968B94B0A22180003F0A2F803000A2B03D0BA4B180001F015FCB34BBF
S12308A0180003F035F903000A2B03D0B54B180001F00AFC8023DB00F918AC4B0A22180017
S12308C003F0D6F803000A2B03D0AF4B180001F0FBFBA54BFB1819688023DB00FB180A220E
S12308E0180002F03FFF031E03D0A84B180001F0EBFB9E4B180003F00BF9031E03D0A44BFB
S1230900180001F0E1FB984BFB181968974B1422180003F05FF80300142B03D09D4B1800E8
S123092001F0D2FB914B180003F0F2F80300142B03D0994B180001F0C7FB8023DB00F918D1
S12309408A4B0522180003F093F80300052B03D0924B180001F0B8FB844B180003F0D8F8B8
S123096003000F2B03D08E4B180001F0ADFB8023DB00FB1805337D481422190003F078F899
S123098003000F2B03D0874B180001F09DFB774B180003F0BDF8031E03D0834B180001F083
S12309A093FB714BFB1819688023DB00FB181422180002F0D7FE031E03D07C4B180001F0EB
S12309C083FB6B4C3B191A68674BFB181968674B180002F0FFFF02003B191B689A4203D080
S12309E0734B180001F070FB604B180003F090F802005F4BFB181B689A4203D06D4B1800C2
S1230A0001F062FB584BFB181968584B0122180002F0E0FF031E03D0674B180001F054FBA0
S1230A20534C3B191A688023DB00F9184F4B180003F01EF802003B191B689A4203D05F4BC1
S1230A40180001F041FB494B180003F061F8031E03D05B4B180001F037FB454BFB181A685B
S1230A60414BFB1819688023DB00FB18180002F079FE031E03D0534B180001F025FB3A4B00
S1230A80FB181968394B1422180002F0A3FF0300142B03D04C4B180001F016FB334B1800FC
S1230AA003F036F80300142B03D0484B180001F00BFB8023DB00F9182C4B1222180002F016
S1230AC0D7FF0300122B03D0414B180001F0FCFA264B180003F01CF80300022B03D03D4B83
S1230AE0180001F0F1FA204BFB1819688023DB00FB181222180002F035FE031E03D0364B88
S1230B00180001F0E1FA1A4BFB181B68023B002B00DA03339B10314ABA1813600023304A72
S1230B20BA1813607AE02E4BFB181B682B483A18126853431A000C4BFB181B689918040072
S1230B403B181A68094B180002F044FF02003B191B689A4248D0234B180001F0B5FAC04622
S1230B60DCF7FFFFE43D000014080000D8F2FF1F0C0800000C4000004040000080400000DB
S1230B80BC400000FC4000003041000070410000A0410000D4410000144200004842000021
S1230BA084420000B8420000F84200002C4300005C4300009C430000D04300000C440000E7
S1230BC04C44000080440000B0440000F04400002445000064450000984500000808000096
S1230BE01C080000C8450000DA4B180002F090FF0100D94BFB181B680133D84ABA181268A5
S1230C0053430233994203D0D54B180001F05CFAD14ABB181B680133BA181360CE4BFB18C2
S1230C201B68032B00DC7EE7CA4B180002F070FF0200CA4BFB181B689B0002339A4203D004
S1230C40C84B180001F040FA8023DB00F918C14B0222180002F00CFF0300022B03D0C24B56
S1230C60180001F031FAC14BFB181B68123319008023DB00FB180222180002F073FD031EEC
S1230C8003D0BB4B180001F01FFA0023B94ABA1813602CE0B74BFB181B688022D200BA1800
S1230CA0D118AC4B0122180002F0E2FE0300012B03D0B14B180001F007FAA64B180002F040
S1230CC027FF0100A54BFB181B689A00A94BFB181B68D31A013B994203D0A84B180001F06C
S1230CE0F3F9A44ABB181B680133BA1813609B497B181B689B009F4ABA1812689A42C9DBFD
S1230D007B181B689B001A00984BFB1819688023DB00FB18180002F025FD031E03D0984BF9
S1230D20180001F0D1F9914BFB181968894B4122180002F04FFE0300412B03D0914B1800A8
S1230D4001F0C2F9894BFB181B68413319008E4C3B191A687F4B180002F03CFE02003B19D8
S1230D601B68413B9A4203D0884B180001F0ACF9784B180002F0CCFE0200834BFB181B6843
S1230D809A4203D0824B180001F09EF97E4C3B191A688023DB00F9186E4B180002F068FEDB
S1230DA002003B191B689A4203D07A4B180001F08BF9684B180002F0ABFE031E03D0764B3A
S1230DC0180001F081F9704BFB181A68674BFB1819688023DB00FB18180002F0C3FC031E7B
S1230DE003D06E4B180001F06FF9604BFB181968584B0022180002F0EDFD031E03D0684B53
S1230E00180001F061F9534B180002F081FE031E03D0644B180001F057F9544BFB18196815
S1230E204C4B2022180002F0D5FD0300202B03D05D4B180001F048F9464B180002F068FEE5
S1230E400300202B03D0594B180001F03DF98023DB00F9183F4B1022180002F009FE03002B
S1230E60102B03D0524B180001F02EF9394B180002F04EFE0300102B03D04E4B180001F006
S1230E8023F93A4BFB1819688023DB00FB181022180002F067FC031E03D0474B180001F05A
S1230EA013F9324BFB181B6820331900294B2022180002F08FFD0300202B03D03F4B180094
S1230EC001F002F9234B180002F022FE0300302B03D03B4B180001F0F7F8244BFB181B68D6
S1230EE040331900284C3B191B68403B1A00194B180002F06FFD02003B191B68403B9A4278
S1230F0003D0304B180001F0DFF8124B180002F0FFFD02001C4BFB181B68103B9A4203D043
S1230F20294B180001F0D0F88023DB00FB181033154C3A191268103A0648190002F098FD2E
S1230F4002003B191B68103B9A4241D01F4B180001F0BAF8D8F2FF1F1C080000080800003B
S1230F60244600006C460000B046000014080000EC460000180800002047000060470000DF
S1230F80A8470000E44700000C080000244800006C480000A4480000E44800001849000086
S1230FA04C49000088490000BC490000FC490000304A0000704A0000A44A0000D44A00003D
S1230FC0184B00004C4B0000984B0000D04B0000D84BFB181A68D84BFB1819688023DB0028
S1230FE0FB18180002F0BEFB031E03D0D34B180001F06AF8D04BFB181968D14B2022180075
S123100002F0E8FC0300202B03D0CE4B180001F05BF8CB4B180002F07BFD0300202B03D0A7
S1231020C94B180001F050F88023DB00F918C44B1022180002F01CFD0300102B03D0C34B35
S1231040180001F041F8BE4B180002F061FD0300102B03D0BE4B180001F036F8B64BFB1874
S123106019688023DB00FB181022180002F07AFB031E03D0B74B180001F026F8AE4BFB1880
S12310801B6820331900AB4C3B191B68143B1A00AB4B180002F09EFC02003B191B68143B64
S12310A09A4203D0AC4B180001F00EF8A44B180002F02EFD02009F4BFB181B68043B9A42B6
S12310C003D0A64B180000F0FFFF9A4C3B191B68083B1A008023DB00F918994B180002F0AB
S12310E0C7FC02003B191B68083B9A4203D09C4B180000F0E9FF904BFB181B6810331900BA
S12311008C4BFB181B68083B1A008023DB00FB18180002F027FB031E03D0924B180000F06B
S1231120D3FF874B180002F0F3FC0300042B03D08D4B180000F0C8FF8023DB00F918804B08
S12311400822180002F094FC0300042B03D0874B180000F0B9FF774BFB181B680833764ADD
S1231160BA181268D1188023DB00FB180422180002F0F8FA031E03D07D4B180000F0A4FF1C
S12311806F4B180002F0C4FC031E03D0794B180000F09AFF684BFB181968694B3122180008
S12311A002F018FC0300312B03D0734B180000F08BFF634B180002F0ABFC0300312B03D012
S12311C06E4B180000F080FF8023DB00F9185C4B1022180002F04CFC0300102B03D0684B4D
S12311E0180000F071FF564B180002F091FC0300212B03D0634B180000F066FF4E4BFB1852
S123120019688023DB00FB181022180002F0AAFA031E03D05C4B180000F056FF464BFB183C
S12312201B6831331900434C3B191B68213B1A00434B180002F0CEFB02003B191B68213B38
S12312409A4203D0514B180000F03EFF3C4B180002F05EFC0200374BFB181B689A4203D046
S12312604B4B180000F030FF324C3B191A688023DB00F918324B180002F0FAFB02003B19E8
S12312801B689A4203D0434B180000F01DFF2C4B180002F03DFC031E03D03F4B180000F026
S12312A013FF254BFB181B6810331900214BFB181A688023DB00FB18180002F053FA031EAC
S12312C003D0364B180000F0FFFE1B4BFB1819681B4B2022180002F07DFB0300202B03D06C
S12312E02F4B180000F0F0FE154B180002F010FC0300202B03D02B4B180000F0E5FE8023DF
S1231300DB00F9180E4B1022180002F0B1FB0300102B03D0244B180000F0D6FE084B1800D5
S123132002F0F6FB0300102B42D0204B180000F0CBFEC0460C080000140800001C4C00009C
S1231340D8F2FF1F504C0000904C0000C44C0000044D0000384D0000684D0000B44D00008D
S1231360EC4D0000304E0000684E00009C4E0000D84E0000104F0000444F0000844F000027
S1231380B84F0000F84F00002C5000005C500000A8500000E0500000205100005451000095
S12313A088510000C8510000FC5100003C520000E04BFB1819688023DB00FB1810221800C2
S12313C002F0D0F9031E03D0DB4B180000F07CFED84BFB181B6820331900D84C3B191A6893
S12313E0D74B180002F0F6FA02003B191B68103B9A4203D0D34B180000F066FE8023DB00F2
S1231400F918CF4B0122180002F032FB0300012B03D0CD4B180000F057FEC94B180002F0AE
S123142077FB0200C54BFB181B68013B9A4203D0C64B180000F048FE8023DB00FB1801337F
S1231440BE4C3A191268013ABD48190002F010FB02003B191B68013B9A4203D0BC4B180078
S123146000F032FEB64B180002F052FB031E03D0B84B180000F028FEAE4BFB181B681033F9
S12314801900AE4BFB181A688023DB00FB18180002F068F9031E03D0AF4B180000F014FE9D
S12314A00023AE4ABA181360002380221201BA181360A24C3B191B68043B1A009D4BFB1892
S12314C019689F4B180002F085FA02003B191B68043B9A4203D0A24B180000F0F5FD974C83
S12314E03B191B68043B9D497A181268D3187A181360934B180002F00BFB02003B191B6829
S1231500043B9A4203D0974B180000F0DDFD8023DB00F9188A4B2022180002F0A9FA0300BF
S1231520202B03D0904B180000F0CEFD80221201BB181B682033BA181360814B180002F062
S1231540E7FA02007D4BFB181B68243B9A4203D0864B180000F0B8FD764BFB1819688023B2
S1231560DB00FB182022180002F0FCF8031E03D07F4B180000F0A8FD784BFB181B686D4ABE
S1231580BA181268D1186E4B0C22180002F022FA03000C2B03D0774B180000F095FD6F4AE3
S12315A0BB181B680C33BA181360654B180002F0AFFA0200614BFB181B68183B9A4203D0A4
S12315C06D4B180000F080FD644BFB181B68594ABA181268D1185A4B1022180002F0FAF9D9
S12315E00300102B03D0654B180000F06DFD544B180002F08DFA0200504BFB181B68083B0E
S12316009A4203D05E4B180000F05EFD4B4C3B191A688023DB00F918494B180002F028FA4F
S123162002003B191B68083B9A4203D0554B180000F04AFD424B180002F06AFA031E03D0FD
S1231640514B180000F040FD80231B01FB181B68384ABA181268D118384BFB181B68083B3D
S12316601A008023DB00FB18180002F07BF8031E03D0464B180000F027FD0023374ABA1817
S12316801360002380221201BA1813602B4C3B191B68043B1A00274BFB181968284B18007E
S12316A002F098F902003B191B68043B9A4203D0374B180000F008FD204C3B191B68043BCB
S12316C026497A181268D3187A1813601C4B180002F01EFA02003B191B68043B9A4203D04B
S12316E02C4B180000F0F0FC8023DB00F918144B2022180002F0BCF90300202B03D0264BFA
S1231700180000F0E1FC80221201BB181B682033BA1813600A4B180002F0FAF90200074B97
S1231720FB181B68243B9A423AD01C4B180000F0CBFCC04614080000705200000C0800009C
S1231740D8F2FF1FA0520000E8520000245300005C530000A4530000D8530000040800001D
S12317600C5400005054000088540000C8540000005500003055000074550000AC550000C5
S1231780F0550000285600006C560000A0560000D85600001C570000545700009457000093
S12317A0C04BFB1819688023DB00FB182022180001F0D8FF031E03D0BB4B180000F084FC51
S12317C0BA4BFB181B68B74ABA181268D118B84B0C22180002F0FEF803000C2B03D0B54BF6
S12317E0180000F071FCB14ABB181B680C33BA181360AF4B180002F08BF90200AE4BFB1805
S12318001B68183B9A4203D0AC4B180000F05CFCA64BFB181B68A34ABA181268D118A44B50
S12318201822180002F0D6F80300182B03D0A44B180000F049FC9E4B180002F069F90200E6
S12318409D4BFB181B689A4203D09E4B180000F03BFC994C3B191A688023DB00F918944B06
S1231860180002F005F902003B191B689A4203D0954B180000F028FC8D4B180002F048F9A5
S1231880031E03D0914B180000F01EFC80231B01FB181B68834ABA181268D118864BFB1817
S12318A01A688023DB00FB18180001F05BFF031E03D0874B180000F007FC00237B4ABA1823
S12318C01360002380221201BA1813607A4C3B191B68043B1A00734BFB181968744B180055
S12318E002F078F802003B191B68043B9A4203D0784B180000F0E8FB6F4C3B191B68043B3C
S12319006A497A181268D3187A181360684B180002F0FEF802003B191B68043B9A4203D09A
S12319206D4B180000F0D0FB8023DB00F918604B2022180002F09CF80300202B03D0674B2B
S1231940180000F0C1FB80221201BB181B682033BA181360564B180002F0DAF80200564BFC
S1231960FB181B68243B9A4203D05D4B180000F0ABFB4C4BFB1819688023DB00FB1820226B
S1231980180001F0EFFE031E03D0564B180000F09BFB464BFB181B68424ABA181268D11832
S12319A0434B0C22180002F015F803000C2B03D04D4B180000F088FB3C4ABB181B680C3305
S12319C0BA1813603A4B180002F0A2F802003A4BFB181B68183B9A4203D0444B180000F0DF
S12319E073FB324BFB181B682E4ABA181268D1182F4B4022180001F0EDFF0300182B03D0CB
S1231A003B4B180000F060FB294B180002F080F80200294BFB181B689A4203D0354B180090
S1231A2000F052FB244C3B191A688023DB00F9181F4B180002F01CF802003B191B689A4253
S1231A4003D02D4B180000F03FFB194B180002F05FF8031E03D0294B180000F035FB8023ED
S1231A601B01FB181B680F4ABA181268D118124BFB181A688023DB00FB18180001F072FE26
S1231A80031E03D01E4B180000F01EFB1D4A1E4B1100180001F0D4FCC046BD461B4B9D44BA
S1231AA090BDC04614080000CC57000004080000D8F2FF1FFC5700000C080000405800009D
S1231AC078580000BC580000F45800003459000068590000A0590000E45900001C5A0000D8
S1231AE05C5A0000945A0000C45A0000085B0000405B0000845B0000BC5B0000FC5B0000D5
S1231B00305C0000845C0000685C00002408000090B58FB000AF786039607B683B6300231D
S1231B207B637B68FB620023BB6236E0BB6A0F2213401DD13A6B7B6B1C491424381901F02C
S1231B4011FC2200BB180433BA1819490824381901F008FC3A6B7B6B1020002112184B4110
S1231B603A637B633A19134B1100180001F068FCFB6A1B781A00104920243B19180001F0AB
S1231B80F1FB3A190D4B1100180001F059FCFB6A0133FB62BB6A0133BB62BA6A3B689A422C
S1231BA0C4D3C046C046BD460FB090BD905C0000985C0000A45C0000AC5C0000B45C000077
S1231BC080B582B000AF0200FB1D1A70FB1D1B781A001F231A40044B012191400A001A6020
S1231BE0C046BD4602B080BD00E100E080B582B000AF0200FB1D1A70FB1D1B781A001F2367
S1231C001340054901229A40130080228B50C046BD4602B080BDC04600E100E080B588B066
S1231C2000AF786039600023FB610023BB6100237B617B68180001F069FD03003B612DE0C5
S1231C40FB697A68D2180F217B1812781A707B181B788033164AD35C1A00382313401AD05F
S1231C607A69BB699B003968CB1879688A181A60FB6901337A68D3181B78202B0BD1FB69BA
S1231C8002337B61FB6901337A68D31800221A70BB690133BB61FB690133FB613B69013BD6
S1231CA0FA699A42CCDBBB691800BD4608B080BDDD5E0000B0B584B000AF786039600F23E0
S1231CC0FB1800221A701B4B1B4A1C491C4801F0B7FB1C4B180001F0B3FB1CE00F257B1928
S1231CE01A78194B1201D1587B191B78164A1B01D31804331C687B191B78134A1B01D318DA
S1231D0008331B680E48220001F09AFB7B191A787B1901321A700F23FB181B7804229342B9
S1231D20DCDB0A4B180001F08BFBC046BD4604B0B0BDC046545D0000605D00006C5D00009D
S1231D40745D0000885D000080F0FF1FA85E000080B582B000AF78603960044B180001F056
S1231D606FFBC046BD4602B080BDC046C05D000080B584B000AF786039607B68022B04D06D
S1231D80224B180001F05CFB3DE03B6804331B68180001F089FC0300FB603B6808331B68AB
S1231DA0180001F081FC0300BB603B6804331B68180001F0C1FE031E09D03B6804331B68FF
S1231DC010220021180001F027FC0300FB603B6808331B68180001F0AFFE031E09D03B686E
S1231DE008331B6810220021180001F015FC0300BB60BA68FB6811001800FFF789FE044B1C
S1231E00180001F01DFBBD4604B080BDD45D0000A85E000090B589B002AF786039600A4B7D
S1231E207B610A4B3B610A4BFB600A4BBB603C697A69B9680848FB680093230001F000FBB3
S1231E40C046BD4607B090BDE45D0000F45D0000085E0000345E00003C5E000090B585B0D3
S1231E6000AF78600F243B191800FEF7B1FC031E33DD3B191B781A001A4B1100180001F0E5
S1231E80DFFA3B191B78082B0FD10E23FB181800FEF79EFC144B180001F0D2FA134B1B686B
S1231EA05A1E124B1A60002318E0104B1A68511C0E4B19607B689B180F217A1812781A702C
S1231EC07B181B780A2B03D07B181B780D2B04D1064B00221A60012300E000231800BD466E
S1231EE005B090BD685E00006C5E0000E4F2FF1FB0B58EB000AF78603723FB1800221A7015
S1231F002EE037243B191A78264B1201D3587A681100180001F058FE031E1BD1224B1800DB
S1231F2001F08EFA0C257A197B6811001800FFF775FE020036217B181A703B191B78194A2B
S1231F401B01D3180C331B687A1812787919100098470BE037217B181A787B1801321A705F
S1231F603723FB181B7804229342CADB3723FB181B78042293420CD17B68180001F0C6FB38
S1231F800300012B05D97A68084B1100180001F057FA074B180001F053FAC046BD460EB021
S1231FA0B0BDC04680F0FF1FA85E0000705E0000885E000080B5C0B000AF00F03DF8962330
S1231FC01B021800FEF736FB0D4B180001F038FAFEF710FC0B4B180001F032FA3B00180030
S1231FE0FFF73CFF031EF9D03B001800FFF780FF80235A003B000021180001F033FEEDE793
S12320008C5E0000885E000004207146084202D0EFF3098001E0EFF3088081690A88054B73
S12320209A4200D0FEE702318161202101607047C0460000ABBE000080B500AF1B4B1B7851
S1232040DBB21A4A3F210B40DBB21370174A174B1278D2B21A70154B1B78DBB2134A042173
S12320600B43DBB21370114B5B79DBB20F4A40218B43DBB253710D4A0C4B5279D2B25A71A0
S12320800A4A0A4BD278D2B2DA70084A074BD278D2B2DA70054BDB78DBB20449802252420C
S12320A01343DBB2CB70C046BD4680BD0040064080B500AF034A88235B010021D150C046B2
S12320C0BD4680BD0070044070B505000E4C0F48210001F0E1FD2100280001F0DDFD0C4AD3
S12320E0111DCB6F013BCB67002B07DB936F591C91670A221A7001F0B4FD70BD21000A20BA
S123210000F028F8F7E7C04660F3FF1FB05E0000E8F2FF1F2023C26810B59A43C260836933
S1232120826A040093420CD000F0BCF8E368074A1A4010231343E360A36AA3612369E362B2
S12321402360E268024B1340E36010BDEFCFFFFFBFBFFFFFF8B5CA684F4B050013400C00E9
S1232160CB60930602D50800FFF7D4FFA268E668531C0FDAB3050DD402235B429B1AA3602C
S123218090235B021E432368E6605A1C22601D70E8B20AE0414A3240022A07D00023A360CA
S12321A080331E43E66001204042F8BD80213C4B090233408B420AD10021200000F058F999
S12321C0E3689B0602D52000FFF7A4FFE6689023F0225B0233431201E360164210D1606941
S12321E001F0F3FD002821D073051FD523002433236123600123E36192235B023343E360C1
S123220090210901226826690B4225D0E36A9A4200D91300991BB34217D1731CE3622360A7
S1232220E3695A1EA26023633570B1E780277F00380000F003F99423E2685B0233431A4396
S123224020612060E761E260DAE72200300000F059F80028E1D0A6E7511CE8B2216010702D
S1232260E26A21688A4200D91100E269891B22635B0504D40A2802D08A4200DD88E70023E4
S123228022003000E6622660A36000F03BF8002800D088E77CE7C046FFFFF7FF8A10000096
S12322A010A00000C368154A70B51A40C2608222040005690168C66A1A40022A02D0012017
S12322C0404270BD80221800520210401342F8D0B14200D231008D4208D10020E268084B75
S12322E0E56213402560A060E360EAE722002800491B00F007F80028EFD0E0E7FFFFF7FF68
S1232300FFFFFEFFF7B5D5680F00140056690190EB0205D5102330001D4301F053FDA06196
S1232320104B1D420FD03000A16901F054FD002806DA80230120E26840421343E3600FE064
S1232340094B1D40E56001993A00300001F00EFB4100A3694908791A5918A1610028E8D100
S1232360FEBDC04610000200EFFFFDFFF7B50027314BC21C1C689508B84215D02B000A3307
S12323800193EB1C9C46002C10D10C3001F012FA431C09D080239B05036045608460002FE0
S12323A048D1254B18601EE00020FEBD8021236849058B423BD1A7686368002F0BD0802662
S12323C039687605B14206D179680333CB186360BB68A360EFE7AB4207DB634505DC80235F
S12323E09B05236020000C30DFE701998B4211D9802189052160032120008A4380210C30A5
S12324005B1B82184905033B6560A260116053609760CAE7002F0AD19B00C01A01F0CAF956
S1232420431CC1D080239B0523606560DAE72700A468A8E7B860D6E7A0F3FF1F10B5FFF759
S123244095FF041E05D11722034901F08FFA01F008FC200010BDC046C55E0000034B1B1861
S123246080331B78DB0600D520307047DD5E0000F7B5394BC66804000D0000921E4202D1E6
S123248002273800FEBD43691800019301F09DFC071EF5D1009B012B05D0022B2CD0002B5F
S12324A005D00237EDE7200000F05AF82D18002DE6DBB30404D52368E26A9A4200D2E36247
S12324C0A169A9420EDCE26A2368934200D21300226958180092801AA84203DB206B0A18EC
S12324E0AA4228DC20231E430023A562A36063601A4B1E40E660C4E7019801F063FCE2686D
S1232500002804DA802313430127E360B9E7E16A2368994200D90B00A1695B1821695B1A9C
S1232520920603D5A26A934200DA1300834200DA0300ED18BBE76D1AB20701D5281AA060B8
S1232540F20703D5009A9B1AEB1A6360009B5D19202325609E43CBE703001000BFCFF7FF8C
S1232560C268930705D1212201200E4B40421A6070472023134012030AD5002B02D0806ADC
S12325800138F5E70368826900699B18181AF7E7002B01D0806AEBE70368826900699B1876
S12325A0181AE5E7A4F3FF1F37B5184C18492200002001F021F9802380225B000021200085
S12325C0D20001F07DF8134C134D22002900012001F012F9802380225B0000212000D200E5
S12325E001F06EF80D4B1B680193022B0DDD0C4C29002200022001F0FFF8802380220021E7
S123260020005B00D20001F05BF837BDE8F2FF1F5D60000024F3FF1F5F600000AC5E00007E
S123262060F3FF1FF0B5CFB00A92559A0400089200220B93549B069218785A1C07920028CA
S123264002D106984FB0F0BD252839D104228021002502279446079B243889001A001678E4
S123266001332B2E4FD046D8202E4ED0232E4FD02A2E4FD1089980C9002F02DA01207F4261
S1232680454002321E7807920891FB43DB173B40149300230C932E2E57D1079B1E782A2E8D
S12326A045D00A2101333200303AD0B20793092846D80C981E78484312180C920133F2E701
S12326C0069B0B9A5D1CDB179A4204DC0CD10A9B069A934208D9A368013BA360002B06DB5B
S12326E023685A1C22601870079B0695A4E72100FFF730FDF8E72D2E03D0302EB8D10D437B
S1232700ACE70543AAE73D43A8E762461543A5E70822FBE700270A203200303AD1B2079398
S12327200929B2D847431E78D7190133F4E7089B04CB0C92079A08931300567802330793BE
S12327400C9B002B18DB10231D436C2E09D1079B1E786C2E13D15E7860231D43079B023363
S123276007934C2E01D0712E0FD1079B1E7860231D43079B013314E000230C93E5E7079BDC
S12327800133079320231D43EBE7682E70D1079B1E78682E07D180235B001D43079B5E789F
S12327A00233079304E0079B0133079380231D43782E09DC572E67DC412E00D1FDE200DDA0
S12327C089E0002E00D1EDE0149B0122013B0C932B0013403993069B15421DD130233893C5
S12327E0AB0501D420233893069B0C9D2493DB172593013D00D48EE000239F4200DD0C9B8F
S1232800069A9B18149A911E0022974202DD14980132121A52180C920B995A1C0692DA1774
S1232820914203DC0CD10A9A9A4209D9A368013BA360002B00DA8FE023685A1C22601E70D4
S1232840399B089F002B10D0069B0C9D2293DB172393013D00D484E00C9B0C9ADB43DB1774
S12328601340069AD3180693089F069D08973BE76A2E04D140231D43079B1E787AE77A2E61
S1232880FAD0742E94D1F7E73000583820289BD801F08DFA66019AFF9AFF9AFF9AFF9AFF2E
S12328A09AFF9AFF9AFF93029AFF3D0059022700270027009AFF59029AFF9AFF9AFF9AFFB6
S12328C08C00C801BE019AFF9AFFAC009AFFF0019AFF9AFF9501022332009A43452A00D03D
S12328E072E78023DB002B43EA0601D406220C921D00002200230721049205930023089F82
S1232900389307378F4303CF4490459188E1089B40CB089358E70B9B259A934204DC0DD173
S12329200A9B249A934209D9A368013BA360002B0DDB23685A1C2260389A1A700120249A5E
S1232940259B002112184B412492259351E721003898FFF7FFFBF1E721003000FFF7FAFB41
S12329606EE70B9B239A934204DC0DD10A9B229A934209D9A368013BA360002B0DDB236808
S12329805A1C226020221A700120229A239B002112184B41229223935BE721002020FFF7FA
S12329A0D9FBF1E7079B013B07935DE7089B1F1D6B0606D5089B069A1B681A60D2175A609D
S12329C053E7AB0604D5089B069A1B681A604CE7EB0504D5089B069A1B681A7045E72B0646
S12329E0F1D5089B069A1B681A803EE7089F08CF3893002B01D1C64B3893389800F086FE22
S1232A000600EB0603D50C9B984200DD1E00149B2A009B1B089301231A4014921D4218D1D1
S1232A202F330C93AB0501D420230C93069B089D1A93DB171B93013D2CD5089B089ADB43F5
S1232A40DB171340069AD2180692089A013AD31A08930025069B2093DB172193B5423ADB7B
S1232A60F043069BC01706409B190693149B002B00D1FAE6069B089D2693DB172793013DA0
S1232A804DD5089B089ADB43DB171340069AD3180693EAE60B9B1B9A934204DC0DD10A9BE1
S1232AA01A9A934209D9A368013BA360002B0DDB23685A1C22600C9A1A7001201A9A1B9B0C
S1232AC0002112184B411A921B93B4E721000C98FFF740FBF1E70B9B219A934204DC0ED163
S1232AE00A9B209A93420AD9A368013BA360002B0FDB23685A1C2260389A525D1A700120AD
S1232B00209A219B002112184B41013520922193A4E7389B2100585DFFF71CFBEFE70B9B0B
S1232B20279A934204DC0DD10A9B269A934209D9A368013BA360002B0DDB23685A1C226041
S1232B4020221A700120269A279B002112184B412692279393E721002020FFF7FBFAF1E71B
S1232B6040232A00089F1A401D421DD00722073797430CCF0492059380232A001A401D42A7
S1232B8016D06B461B8A049300230593614B9C462B0701D4604B9C46604B3893EB0600D446
S1232BA08AE05F490D4087E008CF05920493E3E7EB05EBD56B461B7C05920493E6E7402326
S1232BC02A00089F1A401D4217D00722073797430CCF0492059380232A001A401D4210D0D0
S1232BE06B461B8A0493002305934E4B9C462B0701D4494B9C464C4BCFE708CF05920493DF
S1232C00E9E7EB05F1D56B461B7C05920493ECE7089F08CF049300230593434B3893414B2C
S1232C209C4649E040232A00089F1A401D4216D00722073797430CCF0492059380232A009B
S1232C401A401D420FD06B461B8A049300230593364B9C462B0700D5ADE02F4B8FE008CF79
S1232C6005920493EAE7EB05F2D56B461B7C05920493EDE740232A00089F1A401D4257D03C
S1232C800722073797430CCF0492059380232A001A401D4250D06B461B8A04930023059398
S1232CA010212B001C480B40844638930D4203D01B4B1D4000233893069B0A980B993E93E5
S1232CC0DB173F933E9A3F9B801A994101220C9B52424093634608900991429243925520DC
S1232CE00022419346A950540132202AFBD18222D200154201D1012240926E2E65DC472E18
S1232D0000DD92E0402E00DD83E000230C9392E06160000068600000DC5E000074600000E7
S1232D20FFFDFFFF6B600000856000006E60000008CF05920493A9E7EB05B1D56B461B7CC4
S1232D4005920493ACE7089F6B061AD50722073797430CCF0E920F932B0617D56B46382221
S1232D609B5E0E93DB170F930F9B002B16DA0E980F99002342428B4104920593C54B9C467B
S1232D8019E008CF0E93DB170F93E5E7EB05EBD56B4638229B181B785BB2E2E70E9A0F9B35
S1232DA004920593BC4B9C46AB0704D4BB4B9C466B0700D451E70023EFE610231D4200D0AE
S1232DC08FE51D43033B0C938BE530006F3809289BD800F0ECFFCC00B2009AFF9AFF9AFF2F
S1232DE09AFF47019AFF9AFFB20000F0E0FFA6008EFF8EFF8EFF8EFF8EFF8EFF8EFF8EFF2D
S1232E003D018EFF8EFF3B013D013D013D018EFF3B0132000123413A934051221800104018
S1232E20134200D020E10C9005E03000002358380C931128D9D980232A00DB001A403A92AC
S1232E401D4200D11FE100234093429B002B01DD013B4093439B002B03DD409A013BD31869
S1232E6040930C9B409A41989E1800F04FFC149B9E1B331A389301232B403B93884B1D4221
S1232E8000D13CE100231293DB171393419B129E5A1C41921B781493002B00D032E13B9BED
S1232EA0002B15D130333993AB0501D420233993F317389D1C961D93013D00D443E1389BF0
S1232EC038995A1EDB43DB170B40D21A3892F6183A9B002B00D08FE1F31710961193409B17
S1232EE0109E013B4093002B00DBD7E1F3171F930C9B1E965D1E002B00DDF0E10C9BD84326
S1232F00C017184086197BE10F23049E1E40389B9E5D059B56541B079C46049B01321B093F
S1232F201800059B1E096346034304930596049E059B0C921E43E7D17DE7002246A9F6E742
S1232F400721049808400599303049078C4604999854CE0805990133C80861463143049190
S1232F600590049805990C930843E9D163E7002346AAF6E7059B049ADB0752081A43059B29
S1232F8032925B083393049A059B92089B071A43059B34929B08359334983599329A339B64
S1232FA012184B4119071009084319092C902D912C982D9912184B411906100A0843190A50
S1232FC02E902F912E982F9912184B411904100C0843190C309031913098319912184B41B8
S1232FE000213C933D913C983D9912184B415907D00808432A9000210620DB082B93049AEC
S1233000059B12184B412A982B990C920D930A22002300F0A0FE0C9A0D9B121A8B4110005F
S1233020190002091B071A430B0936923793369837992A9A2B9B801859410A224243049B99
S12330400490059130339B1A9C4628233CAAD218634693550136049B059A0C96134300D05F
S123306088E7E8E60026F6E743AB039342AB029340AB019341AB009330002B00569E46AAC9
S123308044A9B047CFE6409B0C9A9B1A00D4E7E63A9BE5E67060000072600000C35E000059
S12330A001020000099B159A934204DC0DD1089B149A934209D9A368013BA360002B19DBB2
S12330C023685A1C226020221A700120149A159B002112184B4114921593389B5A1E149BFF
S12330E0D31ADFD5389B3899DB43DB170B40D21A3892C8E621002020FFF72CF8E5E700225F
S12331000023E8E7099B139A934204DC0DD1089B129A934209D9A368013BA360002B0DDB72
S123312023685A1C2260149A1A700120129A139B002112184B4112921393A7E621001498DA
S1233140FFF708F8F1E7099B1D9A934204DC0DD1089B1C9A934209D9A368013BA360002B2A
S12331600DDB23685A1C2260399A1A7001201C9A1D9B002112184B411C921D939CE621001C
S12331803998FEF7E7FFF1E7149A46ABD05CF3173C2825D03E286BD116961793439B169DF0
S12331A0013B4393002B23DB099B179A934204DC0DD1089B169A934209D9A368013BA36094
S12331C0002B50DB23685A1C226030221A700120169A179B002112184B4116921793DDE7C6
S12331E018961993429B189D013B4293002B19DA2E00149B013314930C9B149A9342C3DC2F
S12332003B9B002B0BD0F317389D28962993013D00D486E0389BD843C01718403618069BF1
S12332209B1935E4099B199A934204DC0DD1089B189A934209D9A368013BA360002B0DDB6A
S123324023685A1C226030221A700120189A199B002112184B4118921993C3E7210030203C
S1233260FEF778FFF1E721003020FEF773FFAEE7099A751C934203DBBAD1089BB342B7D9FF
S1233280A368013BA360002B04DB23685A1C22601870ADE72100FEF75DFFA9E7099B119AE6
S12332A0934204DC0DD1089B109A934209D9A368013BA360002B0DDB23685A1C2260302241
S12332C01A700120109A119B002112184B411092119304E621003020FEF73CFFF1E7099BC5
S12332E01F9A934204DC0ED1089B1E9A93420AD9A36846AA013B505DA360002B0DDB2368E5
S12333005A1C2260187001201E9A1F9B002112184B411E921F932B00ECE52100FEF71AFF32
S1233320F1E7099B299A934204DC0DD1089B289A934209D9A368013BA360002B0DDB2368B3
S12333405A1C226020221A700120289A299B002112184B412892299359E721002020FEF71B
S1233360F9FEF1E70EB430B596B019AB20CB04003C22002107A8069300F074FC0A23012263
S12333800A93114B00950993104B52420293069B07A801930C4B0794FFF744F9099B0400CA
S12333A00593013B0993002B08DB0023079A1370200016B030BC08BC03B0184707A90020CC
S12333C0FEF7C8FEF4E7C046FFFFFF7FC73C0000F0B507000C0015001E0097B0002803D1A0
S12333E0002926D1013406AF3C22002107A800F039FC0A23621E00240A930F4B0095099373
S12334000E4B0196029307A823000797FFF70AF9099B05000593013B0993A34204DB079B3B
S12334201C70280017B0F0BD200007A9FEF792FEF7E701256D42F4E7FFFFFF7FC73C0000FE
S12334400FB473B506AB40CB0121320068460193FFF7BEFF041E14DD451C2800FEF786FF62
S1233460009000280DD032002900019BFFF7B0FF064B22000099186D00F078FA009800F09C
S1233480F5FB200076BC08BC04B01847E8F2FF1F0A4B1B1880331B789A0605D5303888429D
S12334A001DB0120404270471A0701D55738F6E73738DB06F3D401204042F0E7DD5E0000A3
S12334C0F0B503001400012585B02E4E019003911A0010780133002806D0311880310978E1
S12334E02942F5D1302820D000271A00BC4201D127000A2400263500009202962100FFF74D
S1233500C7FF002828DA002F02D0009B013B0193039B019A1A60029B002B2FD0222201206C
S1233520194B40421A6005B0F0BD1878202105008D4329000232582D07D1270048398F43EB
S123354008D10C0058789A1CD4E70127002CD1D10834CFE70127CDE7664365438619330C4E
S12335605D198023B6B25B029D4201D301230293009B0127187801330093BFE7280430439E
S1233580D1E7C046DD5E0000A4F3FF1FF0B5030006000F00012085B001921D002C780133DE
S12335A0002C0FD019490919803109788C46624601400242F1D12B2C17D02D2C16D11D00EA
S12335C0D434FF342800019A03A9FFF779FF002F04D0039BAB4200D01E003E60002C0DD0AC
S12335E0002805DB404205B0F0BD1D000C00E9E722228020064B00061A60F4E70028F2DA5E
S12336002222034B03481A60EDE7C046DD5E0000A4F3FF1FFFFFFF7FF0B50F00060001004E
S12336201F4B85B01B68019200930D002B780131002B2DD01B4C0120E41880342478A44676
S12336400124624614400242EFD12B2B22D02D2B02D180240D00A4000023114A2800136060
S123366003A9019AFFF72CFF002F04D0039BAB4200D01E003E600A4B1A68222A06D0009A31
S12336801A60002C02D0002806DB404205B0F0BD1C00E1E70D00DFE7222201201A60F4E750
S12336A0A4F3FF1FDD5E000070B5044C0A2225680021FFF76BFF256070BDC046A4F3FF1FFA
S12336C0F0B5C56804000120AE070CD080208000824213D08020C000824205D080204000BE
S12336E082420BD0FF38F0BD2100012324312A43002021612160E361E260F4E7024F5E1EEB
S12337000120BE42F3D9EEE7FEFFFF00032310B5411C0200184217D1104C136810481818FC
S12337209843204217D0DCB2501C002C11D0FF242402901C23420CD0FF2000040340581E48
S12337408341D318D81C04E00130421E1278002ADFD1401A10BD0432DFE7C04680808080C0
S1233760FFFEFEFE0300084330B580070BD10F4D032A08D90C681868844204D10C48201831
S1233780A043284201D000240CE004330431043AEEE7185D0D5DA84201D0401B30BD013461
S12337A00028FBD0A242F4D10020F7E780808080FFFEFEFE70B50D4D04002B68002B01D15F
S12337C00B4B2B6003232E6803349C433419200000F09CF8002802D12C60300070BD0C222F
S12337E00126044B76421A60F7E7C0469CF3FF1FA8F3FF1FA4F3FF1FF7B50D0001901000C4
S1233800140000F033F82B78722B1CD0772B1DD0612B26D1144A593B0220691C03278446AA
S12338200426012508782B2813D0622816D0E260019A62611B0704D5022200212000FEF719
S123384017FE2000FEBD00230122E5E704230222E2E760463A4303430131E3E732432B4306
S1233860FAE70024EDE7C04602800000F0B5C568040089B0AB0722D02B0718D447690669F3
S123388000F022F8380000F09AFA2B0502D5300000F0ECF90B4BAD0DAD059D4207D1202297
S12338A06846216A00F09AFA684600F00EFA3C220021200000F0D6F9002009B0F0BD01209C
S12338C04042FAE7000080AD73B5002813D000F029F80500280076BD30006043094BC018B1
S12338E000F020F8002801D001256D420134019BA342F1DCEEE7044B04001B6805003C2659
S12339000193F4E7E8F2FF1FAC5E000003000448002803D000228342524110007047C046A1
S1233920A8F7FF1FC36870B503221E0004001640134211D09B0611D5856AFEF7EBFBE26808
S1233940094B20001340E360FEF7ACFC0022060029002000FEF78CFD300070BD036882691A
S12339609D180369ED1AEAE7FFCFFFFF80B584B000AFF860B9607A607A68BB6811001800ED
S1233980FCF70AFF00231800BD4604B080BD80B584B000AFF860B960BB1D1A80FB68BA6878
S12339A01A60FB681868BB1D1B881A00002100F059F9FB68BA1D12889A80FB6800221A81A0
S12339C0FB6800225A81FB680022DA80C046BD4604B080BD80B586B000AFF860B9607A6045
S12339E0BB68002B02D101235B423DE0BB687B6100233B6100233B6131E0FB68DA88FB680E
S1233A009B889A4204D3FB689A88FB68DA802AE0FB681B68FA6812899B187A6912781A70F3
S1233A207B6901337B61FB681B895A1CFB689B881900100000F052F90B009AB2FB681A81D2
S1233A400C20FEF7D3F8FB68DB8801339AB2FB68DA800C20FEF7B4F83B6901333B613A698F
S1233A607B689A42C9D33B691800BD4606B080BD80B586B000AFF860B9607A60BB68002B82
S1233A8002D101235B423FE0BB687B6100233B6100233B6131E0FB68DB88002B32D0FB688B
S1233AA01B68FA6852899B181A787B691A70FB681B68FA6852899B1800221A707B690133F5
S1233AC07B61FB685B895A1CFB689B881900100000F004F90B009AB2FB685A810C20FEF7F7
S1233AE085F8FB68DB88013B9AB2FB68DA800C20FEF766F83B6901333B613A697B689A42E5
S1233B00C9D300E0C0463B691800BD4606B080BD80B582B000AF78607B68DB881800BD461E
S1233B2002B080BD80B582B000AF78607B689B881800BD4602B080BD80B586B000AF7860A2
S1233B407B681800FFF7E2FD03003B611623FB1800221A802DE01623FB181B887A68D21822
S1233B600F217B1812781A700A00BB181B78782B03D0BB181B78582B01D1012320E00F2274
S1233B80BB181B78462B03D8BB181B78402B08D80F22BB181B78662B05D8BB181B78602BC8
S1233BA001D901230CE016217B181A887B1801321A801623FB181B883A699A42CBDC002313
S1233BC01800BD4606B080BD90B585B000AF786039607B68002B02D03B68002B02D1012394
S1233BE05B4234E00023FB600023FB601FE0FB687A68D3181B781800FEF730FC0400FB68B2
S1233C003A68D3181B781800FEF728FC03009C420AD0FB687A68D3181B781900FB683A68B3
S1233C20D3181B78CB1A12E0FB680133FB60FB687A68D3181B78002BD9D1FB687A68D31871
S1233C401B78002B01D1002301E001235B421800BD4605B090BD10B5FEF7A6FCFEF7AAF9FA
S1233C6010BDFEE710B500F08DF810BD10B5002811D080210C38490501608268002A0AD037
S1233C8013688B4207D14368546803331B19436093688360F1E710BD70B50C000500287833
S1233CA000280FD0A368013BA360002B05DB23685A1C226018700135F1E72100FEF74AFA31
S1233CC0431CF8D170BD0020704710B50400FFF71DFD0100200000F07BF810BD03000B4339
S1233CE021D4002931D00122D207030901E0090112099942FBD9430801E04900520899423A
S1233D00FBD900E04908401A07D35241FAD301461046704749084018F7D29218FAD3401871
S1233D20014610467047CB0F00D04942021000D54042534008B5FFF7D4FF0CBC521000D377
S1233D404042002A00D549421847F446002000F001F86047704710B543435143C918040C83
S1233D60130C5C43091992B2040C544380B2434350432204240C801861411A041B0C8018BC
S1233D80594110BD8446043A09D3830707D109060B0A19430B0C1943043A02C0FCD204327B
S1233DA003D001700130013AFBD1604670478C46411E7144095E49008E446146704701203F
S1233DC040427047012040427047012040427047012040427047012040427047012040429B
S1233DE07047FFFF546F2062652C206F72206E6F7420746F2062653A2074686174206973D1
S1233E0020746865207175657374696F6E3A0A576865746865722027746973206E6F626C28
S1233E20657220696E20746865206D696E6420746F207375666665720A54686520736C6946
S1233E406E677320616E64206172726F7773206F66206F7574726167656F757320666F723B
S1233E6074756E652C0A4F7220746F2074616B652061726D7320616761696E737420612048
S1233E80736561206F662074726F75626C65732C0A416E64206279206F70706F73696E678D
S1233EA020656E64207468656D3F20546F206469652C20746F20736C6565702D2D0A4E6FDC
S1233EC0206D6F72652D2D616E64206279206120736C65657020746F20736179207765203D
S1233EE0656E640A5468652068656172742D6163686520616E64207468652074686F757363
S1233F00616E64206E61747572616C2073686F636B730A5468617420666C657368206973DF
S1233F20206865697220746F2C2027746973206120636F6E73756D6D6174696F6E0A44657E
S1233F40766F75746C7920746F206265207769736827642E20546F206469652C20746F20A8
S1233F60736C6565703B0A546F20736C6565703A207065726368616E636520746F206472E7
S1233F8065616D3A2061792C207468657265277320746865207275623B0A466F7220696E8B
S1233FA0207468617420736C656570206F66206465617468207768617420647265616D7368
S1233FC0206D617920636F6D650A5768656E20776520686176652073687566666C656420C5
S1233FE06F66662074686973206D6F7274616C20636F696C2C0A4D7573742067697665206A
S123400075732070617573652E0000002E746573745F63626669666F2E633A3437203A20E2
S123402063626669666F5F6C656E6774682826746573745F62756629203D3D203000000075
S12340402E746573745F63626669666F2E633A3438203A2063626669666F5F646571756519
S123406075652826746573745F6275662C206275662C2063617029203D3D2030000000009C
S12340802E746573745F63626669666F2E633A3439203A2063626669666F5F6465717565D8
S12340A075652826746573745F6275662C206275662C203129203D3D203000002E746573E5
S12340C0745F63626669666F2E633A3532203A2063626669666F5F656E71756575652826E6
S12340E0746573745F6275662C207374722C20313029203D3D203130000000002E74657350
S1234100745F63626669666F2E633A3533203A2063626669666F5F6C656E677468282674A6
S12341206573745F62756629203D3D20313000002E746573745F63626669666F2E633A3599
S123414034203A2063626669666F5F646571756575652826746573745F6275662C2062752A
S1234160662C20313029203D3D203130000000002E746573745F63626669666F2E633A352E
S123418035203A207374726E636D70286275662C207374722C20313029203D3D203000009B
S12341A02E746573745F63626669666F2E633A3536203A2063626669666F5F6C656E6774B3
S12341C0682826746573745F62756629203D3D20300000002E746573745F63626669666F00
S12341E02E633A3539203A2063626669666F5F656E71756575652826746573745F6275669E
S12342002C207374722C20323029203D3D203230000000002E746573745F63626669666F4C
S12342202E633A3630203A2063626669666F5F6C656E6774682826746573745F62756629B2
S1234240203D3D20323000002E746573745F63626669666F2E633A3631203A206362666948
S1234260666F5F646571756575652826746573745F6275662C206275662C203529203D3DA1
S1234280203500002E746573745F63626669666F2E633A3632203A2063626669666F5F6C2E
S12342A0656E6774682826746573745F62756629203D3D20313500002E746573745F6362DF
S12342C06669666F2E633A3633203A2063626669666F5F64657175657565282674657374C4
S12342E05F6275662C206275662B352C20323029203D3D20313500002E746573745F63622C
S12343006669666F2E633A3634203A2063626669666F5F6C656E6774682826746573745F8F
S123432062756629203D3D20300000002E746573745F63626669666F2E633A3635203A20C3
S12343407374726E636D70286275662C207374722C20323029203D3D203000002E7465730D
S1234360745F63626669666F2E633A3638203A2063626669666F5F656E717565756528263C
S1234380746573745F6275662C207374722C2063617029203D3D2063617000002E74657307
S12343A0745F63626669666F2E633A3639203A2063626669666F5F6C656E677468282674FD
S12343C06573745F62756629203D3D20636170002E746573745F63626669666F2E633A3722
S12343E030203A2063626669666F5F656E71756575652826746573745F6275662C20737472
S1234400722C203129203D3D203000002E746573745F63626669666F2E633A3731203A2033
S123442063626669666F5F646571756575652826746573745F6275662C206275662C2063E0
S1234440617029203D3D2063617000002E746573745F63626669666F2E633A3732203A200C
S123446063626669666F5F6C656E6774682826746573745F62756629203D3D203000000031
S12344802E746573745F63626669666F2E633A3733203A207374726E636D70286275662C1B
S12344A0207374722C2063617029203D3D2030002E746573745F63626669666F2E633A3734
S12344C036203A2063626669666F5F656E71756575652826746573745F6275662C2073748B
S12344E0722C20323029203D3D203230000000002E746573745F63626669666F2E633A379B
S123450037203A2063626669666F5F6C656E6774682826746573745F62756629203D3D200F
S1234520323000002E746573745F63626669666F2E633A3738203A2063626669666F5F647F
S12345406571756575652826746573745F6275662C206275662C20313829203D3D20313899
S1234560000000002E746573745F63626669666F2E633A3739203A2063626669666F5F6C98
S1234580656E6774682826746573745F62756629203D3D20320000002E746573745F636230
S12345A06669666F2E633A3830203A207374726E636D70286275662C207374722C203138E0
S12345C029203D3D203000002E746573745F63626669666F2E633A3835203A2063626669C8
S12345E0666F5F656E71756575652826746573745F6275662C207374722B692A6368756ED0
S12346006B5F73697A652C206368756E6B5F73697A6529203D3D206368756E6B5F73697AE1
S1234620650000002E746573745F63626669666F2E633A3836203A2063626669666F5F6C74
S1234640656E6774682826746573745F62756629203D3D2028692B31292A6368756E6B5FFB
S123466073697A65202B2032000000002E746573745F63626669666F2E633A3838203A2073
S123468063626669666F5F6C656E6774682826746573745F62756629203D3D20342A636816
S12346A0756E6B5F73697A65202B2032000000002E746573745F63626669666F2E633A3937
S12346C031203A2063626669666F5F646571756575652826746573745F6275662C206275A8
S12346E0662C203229203D3D203200002E746573745F63626669666F2E633A3932203A2057
S12347007374726E636D70286275662C207374722B31382C203229203D3D2030000000005F
S12347202E746573745F63626669666F2E633A3936203A2063626669666F5F64657175652F
S123474075652826746573745F6275662C206275662B692C203129203D3D20310000000023
S12347602E746573745F63626669666F2E633A3937203A2063626669666F5F6C656E6774E8
S1234780682826746573745F62756629203D3D206368756E6B5F73697A652A34202D2069B9
S12347A0202D2031000000002E746573745F63626669666F2E633A3939203A207374726E23
S12347C0636D70286275662C207374722C206368756E6B5F73697A652A3429203D3D20309B
S12347E0000000002E746573745F63626669666F2E633A313032203A2063626669666F5F5F
S1234800656E71756575652826746573745F6275662C207374722C20363529203D3D20367D
S1234820350000002E746573745F63626669666F2E633A313033203A2063626669666F5FE8
S1234840656E71756575652826746573745F6275662C207374722B36352C206361702920AE
S12348603D3D206361702D36350000002E746573745F63626669666F2E633A313034203A5E
S12348802063626669666F5F6C656E6774682826746573745F62756629203D3D20636170E9
S12348A0000000002E746573745F63626669666F2E633A313035203A2063626669666F5F9B
S12348C0646571756575652826746573745F6275662C206275662C2063617029203D3D2050
S12348E0636170002E746573745F63626669666F2E633A313036203A2063626669666F5F26
S12349006C656E6774682826746573745F62756629203D3D203000002E746573745F636242
S12349206669666F2E633A313037203A207374726E636D70286275662C207374722C206332
S1234940617029203D3D2030000000002E746573745F63626669666F2E633A313130203A02
S12349602063626669666F5F656E71756575652826746573745F6275662C207374722C20B8
S12349803029203D3D2030002E746573745F63626669666F2E633A313131203A2063626617
S12349A069666F5F6C656E6774682826746573745F62756629203D3D203000002E7465739D
S12349C0745F63626669666F2E633A313230203A2063626669666F5F656E717565756528D7
S12349E026746573745F6275662C207374722C20333229203D3D2033320000002E74657319
S1234A00745F63626669666F2E633A313231203A2063626669666F5F6C656E6774682826E5
S1234A20746573745F62756629203D3D203332002E746573745F63626669666F2E633A311C
S1234A403232203A2063626669666F5F646571756575652826746573745F6275662C206266
S1234A6075662C20313629203D3D2031360000002E746573745F63626669666F2E633A31A8
S1234A803233203A2063626669666F5F6C656E6774682826746573745F62756629203D3D7C
S1234AA0203136002E746573745F63626669666F2E633A313234203A207374726E636D70D2
S1234AC0286275662C207374722C20313629203D3D2030002E746573745F63626669666F4C
S1234AE02E633A313236203A2063626669666F5F656E71756575652826746573745F6275D0
S1234B00662C207374722B33322C20333229203D3D203332000000002E746573745F6362EB
S1234B206669666F2E633A313237203A2063626669666F5F6C656E67746828267465737496
S1234B405F62756629203D3D203438002E746573745F63626669666F2E633A313238203AF0
S1234B602063626669666F5F656E71756575652826746573745F6275662C207374722B36A1
S1234B80342C206361702D363429203D3D206361702D3634000000002E746573745F636206
S1234BA06669666F2E633A313239203A2063626669666F5F6C656E67746828267465737414
S1234BC05F62756629203D3D206361702D3136002E746573745F63626669666F2E633A31D8
S1234BE03330203A2063626669666F5F646571756575652826746573745F6275662C2062C6
S1234C0075662B31362C206361702D313629203D3D206361702D3136000000002E746573EA
S1234C20745F63626669666F2E633A313331203A207374726E636D70286275662C207374BB
S1234C40722C2063617029203D3D2030000000002E746573745F63626669666F2E633A3199
S1234C603333203A2063626669666F5F656E71756575652826746573745F6275662C207327
S1234C8074722C20333229203D3D2033320000002E746573745F63626669666F2E633A317F
S1234CA03334203A2063626669666F5F6C656E6774682826746573745F62756629203D3D58
S1234CC0203332002E746573745F63626669666F2E633A313335203A2063626669666F5FEF
S1234CE0646571756575652826746573745F6275662C206275662C20313629203D3D2031C8
S1234D00360000002E746573745F63626669666F2E633A313336203A2063626669666F5FFC
S1234D206C656E6774682826746573745F62756629203D3D203136002E746573745F6362E7
S1234D406669666F2E633A313337203A207374726E636D70286275662C207374722C20313D
S1234D603629203D3D2030002E746573745F63626669666F2E633A313339203A2063626623
S1234D8069666F5F656E71756575652826746573745F6275662C207374722B33322C2063EC
S1234DA061702D323029203D3D206361702D3230000000002E746573745F63626669666F33
S1234DC02E633A313430203A2063626669666F5F6C656E6774682826746573745F62756601
S1234DE029203D3D206361702D3400002E746573745F63626669666F2E633A313431203AC6
S1234E002063626669666F5F646571756575652826746573745F6275662C206275662C2039
S1234E206361702D3829203D3D206361702D38002E746573745F63626669666F2E633A31A7
S1234E403432203A207374726E636D70286275662C207374722B31362C206361702D3829BD
S1234E60203D3D20300000002E746573745F63626669666F2E633A313433203A2063626686
S1234E8069666F5F6C656E6774682826746573745F62756629203D3D203400002E746573B4
S1234EA0745F63626669666F2E633A313434203A2063626669666F5F6465717565756528F6
S1234EC026746573745F6275662C206275662C203829203D3D2034002E746573745F636216
S1234EE06669666F2E633A313435203A207374726E636D70286275662C207374722B313688
S1234F002B6361702D382C203429203D3D2030002E746573745F63626669666F2E633A3184
S1234F203436203A2063626669666F5F6C656E6774682826746573745F62756629203D3DD2
S1234F40203000002E746573745F63626669666F2E633A313438203A2063626669666F5F9D
S1234F60656E71756575652826746573745F6275662C207374722C20343929203D3D203416
S1234F80390000002E746573745F63626669666F2E633A313439203A2063626669666F5F73
S1234FA06C656E6774682826746573745F62756629203D3D203439002E746573745F63625F
S1234FC06669666F2E633A313530203A2063626669666F5F646571756575652826746573FE
S1234FE0745F6275662C206275662C20313629203D3D2031360000002E746573745F636205
S12350006669666F2E633A313531203A2063626669666F5F6C656E677468282674657374B4
S12350205F62756629203D3D203333002E746573745F63626669666F2E633A313532203A14
S1235040207374726E636D70286275662C207374722C20313629203D3D2030002E746573DB
S1235060745F63626669666F2E633A313534203A2063626669666F5F656E71756575652829
S123508026746573745F6275662C207374722B34392C206361702D333329203D3D20636193
S12350A0702D3333000000002E746573745F63626669666F2E633A313535203A2063626628
S12350C069666F5F6C656E6774682826746573745F62756629203D3D2063617000000000EC
S12350E02E746573745F63626669666F2E633A313536203A2063626669666F5F646571759E
S12351006575652826746573745F6275662C206275662C2063617029203D3D206361700082
S12351202E746573745F63626669666F2E633A313537203A2063626669666F5F6C656E6765
S123514074682826746573745F62756629203D3D203000002E746573745F63626669666FFC
S12351602E633A313538203A207374726E636D70286275662C207374722B31362C20636195
S12351807029203D3D2030002E746573745F63626669666F2E633A313630203A20636266CB
S12351A069666F5F656E71756575652826746573745F6275662C207374722C20333229200D
S12351C03D3D2033320000002E746573745F63626669666F2E633A313631203A206362660E
S12351E069666F5F6C656E6774682826746573745F62756629203D3D203332002E74657320
S1235200745F63626669666F2E633A313632203A2063626669666F5F646571756575652892
S123522026746573745F6275662C206275662C20313629203D3D2031360000002E746573E8
S1235240745F63626669666F2E633A313633203A2063626669666F5F6C656E677468282697
S1235260746573745F62756629203D3D203136002E746573745F63626669666F2E633A31D2
S12352803634203A207374726E636D70286275662C207374722C20313629203D3D2030004F
S12352A02E746573745F63626669666F2E633A313636203A2063626669666F5F656E7175D1
S12352C06575652826746573745F6275662C207374722B33322C2063617029203D3D2063E6
S12352E061702D31360000002E746573745F63626669666F2E633A313637203A2063626681
S123530069666F5F646571756575652826746573745F6275662C206275662C203129203DC8
S12353203D2031002E746573745F63626669666F2E633A313638203A2063626669666F5F79
S12353406C656E6774682826746573745F62756629203D3D206361702D3100002E7465732E
S1235360745F63626669666F2E633A313639203A2063626669666F5F64657175657565282A
S123538026746573745F6275662C206275662B312C206361702D3129203D3D206361702D80
S12353A0310000002E746573745F63626669666F2E633A313730203A2063626669666F5F5D
S12353C06C656E6774682826746573745F62756629203D3D203000002E746573745F636278
S12353E06669666F2E633A313731203A207374726E636D70286275662C207374722B313684
S12354002C2063617029203D3D2030002E746573745F63626669666F2E633A313739203A79
S12354202063626669666F5F656E71756575652826746573745F6275662C207374722C20ED
S12354406361702D3429203D3D206361702D34002E746573745F63626669666F2E633A3189
S12354603831203A2063626669666F5F6C656E6774682826746573745F62756629203D3D8E
S1235480206361702D3400002E746573745F63626669666F2E633A313832203A2063626692
S12354A069666F5F646571756575652826746573745F6275662C206275662C203332292030
S12354C03D3D2033320000002E746573745F63626669666F2E633A313834203A2063626606
S12354E069666F5F6C656E6774682826746573745F62756629203D3D206361702D33360032
S12355002E746573745F63626669666F2E633A313835203A207374726E636D702862756682
S12355202C207374722C20333229203D3D2030002E746573745F63626669666F2E633A314C
S12355403836203A2063626669666F5F656E71756575652826746573745F6275662C207336
S123556074722B77706F732C20313229203D3D20313200002E746573745F63626669666FA2
S12355802E633A313838203A2063626669666F5F6C656E6774682826746573745F6275662D
S12355A029203D3D206361702D3234002E746573745F63626669666F2E633A313930203AC8
S12355C02063626669666F5F656E71756575652826746573745F6275662C207374722B77F6
S12355E0706F732C20313629203D3D20313600002E746573745F63626669666F2E633A31A6
S12356003931203A2063626669666F5F6C656E6774682826746573745F62756629203D3DEB
S1235620206361702D3800002E746573745F63626669666F2E633A313932203A20636266EB
S123564069666F5F646571756575652826746573745F6275662C206275662C2063617029DF
S1235660203D3D206361702D380000002E746573745F63626669666F2E633A313933203A5B
S12356802063626669666F5F6C656E6774682826746573745F62756629203D3D20300000DF
S12356A02E746573745F63626669666F2E633A313934203A207374726E636D7028627566E1
S12356C02C207374722B72706F732C206361702D3829203D3D2030002E746573745F636228
S12356E06669666F2E633A313939203A2063626669666F5F656E71756575652826746573C0
S1235700745F6275662C207374722C206361702D3429203D3D206361702D34002E746573FD
S1235720745F63626669666F2E633A323031203A2063626669666F5F6C656E6774682826B9
S1235740746573745F62756629203D3D206361702D3400002E746573745F63626669666FBB
S12357602E633A323032203A2063626669666F5F646571756575652826746573745F627552
S1235780662C206275662C20333229203D3D2033320000002E746573745F63626669666F67
S12357A02E633A323034203A2063626669666F5F6C656E6774682826746573745F62756616
S12357C029203D3D206361702D3336002E746573745F63626669666F2E633A323035203AA6
S12357E0207374726E636D70286275662C207374722C20333229203D3D2030002E74657336
S1235800745F63626669666F2E633A323036203A2063626669666F5F656E71756575652883
S123582026746573745F6275662C207374722B77706F732C20313229203D3D203132000054
S12358402E746573745F63626669666F2E633A323038203A2063626669666F5F6C656E6741
S123586074682826746573745F62756629203D3D206361702D3234002E746573745F6362E2
S12358806669666F2E633A323130203A2063626669666F5F656E717565756528267465732E
S12358A0745F6275662C207374722B77706F732C20323429203D3D20323400002E746573C6
S12358C0745F63626669666F2E633A323131203A2063626669666F5F6C656E677468282617
S12358E0746573745F62756629203D3D20636170000000002E746573745F63626669666F7B
S12359002E633A323132203A2063626669666F5F646571756575652826746573745F6275AF
S1235920662C206275662C2063617029203D3D20636170002E746573745F63626669666F27
S12359402E633A323133203A2063626669666F5F6C656E6774682826746573745F62756674
S123596029203D3D203000002E746573745F63626669666F2E633A323134203A2073747225
S12359806E636D70286275662C207374722B72706F732C2063617029203D3D2030000000C9
S12359A02E746573745F63626669666F2E633A323139203A2063626669666F5F656E7175CB
S12359C06575652826746573745F6275662C207374722C206361702D3429203D3D206361AD
S12359E0702D34002E746573745F63626669666F2E633A323231203A2063626669666F5F7A
S1235A006C656E6774682826746573745F62756629203D3D206361702D3400002E74657364
S1235A20745F63626669666F2E633A323232203A2063626669666F5F64657175657565286D
S1235A4026746573745F6275662C206275662C20333229203D3D2033320000002E746573C4
S1235A60745F63626669666F2E633A323234203A2063626669666F5F6C656E677468282671
S1235A80746573745F62756629203D3D206361702D3336002E746573745F63626669666F43
S1235AA02E633A323235203A207374726E636D70286275662C207374722C20333229203DBC
S1235AC03D2030002E746573745F63626669666F2E633A323236203A2063626669666F5FD8
S1235AE0656E71756575652826746573745F6275662C207374722B77706F732C203132298F
S1235B00203D3D20313200002E746573745F63626669666F2E633A323238203A20636266A2
S1235B2069666F5F6C656E6774682826746573745F62756629203D3D206361702D323400EE
S1235B402E746573745F63626669666F2E633A323330203A2063626669666F5F656E717530
S1235B606575652826746573745F6275662C207374722B77706F732C20363429203D3D2006
S1235B80323400002E746573745F63626669666F2E633A323331203A2063626669666F5F42
S1235BA06C656E6774682826746573745F62756629203D3D20636170000000002E74657324
S1235BC0745F63626669666F2E633A323332203A2063626669666F5F6465717565756528CB
S1235BE026746573745F6275662C206275662C2063617029203D3D20636170002E74657385
S1235C00745F63626669666F2E633A323333203A2063626669666F5F6C656E6774682826CF
S1235C20746573745F62756629203D3D203000002E746573745F63626669666F2E633A323E
S1235C403334203A207374726E636D70286275662C207374722B72706F732C2063617029B6
S1235C60203D3D203000000025733A2070617373656420616C6C20746573742063617365CF
S1235C80730D0A00746573745F63626669666F002530385800000000252E3034735F2573E8
S1235CA0000000000D0A25732020000025303258000000002573200048656C7000000000D1
S1235CC03C6E6F6E653E000068656C7020636F6D6D616E64207669657700000064756D705D
S1235CE0000000003C73746172745F616464723E3C6C656E6774683E0000000048657820BD
S1235D007669657700000000617574686F720000646973706C6179732074686520617574FD
S1235D20686F72206E616D6500000000696E666F00000000646973706C61797320746865DF
S1235D40206275696C6420696E666F726D6174696F6E00FF4465736372697074696F6E00C6
S1235D60417267756D656E7473000000436F6D6D616E6400252D31307320252D3234732019
S1235D8025730D0A000000002D2D2D2D2D2D2D2D2D2D2D2D2D2D2D2D2D2D2D2D2D2D2D2D18
S1235DA02D2D2D2D2D2D2D2D2D2D2D2D2D2D2D2D2D2D2D2D2D2D2D2D2D2D2D0D0A00FFFF0B
S1235DC053616E6B616C70204167726177616C0D0A00FFFF57726F6E6720636F6D6D616E59
S1235DE0640D0A004C4150544F502D474C355655514C5600323032312D31312D31305F324E
S1235E00313A32303A323300303234626132393566336137663264623165656461636535CD
S1235E203262663338623232613339636463666600000000312E302E3200000056657273E1
S1235E40696F6E202573206275696C74206F6E202573206174202573200D0A436F6D6D6972
S1235E60742025730D0A00FF25630000200800FF0D0A556E6B6E6F776E20436F6D6D616EAB
S1235E80643A2025730D0A003F2000FF57656C636F6D6520746F20427265616B66617374B1
S1235EA053657269616C21200D0A00FF030000002A2A2A20617373657274206661696C65D3
S1235EC064203A20002A2A2A205F437379735F616C6C6F63206661696C65640A0000000048
S1235EE000000000000000000000000000000000000000000000000000000000000000009E
S1235F0000000000000000000000000000000000000000000000000000000000000000007D
S1235F2000000000000000000000000000000000000000000000000000000000000000005D
S1235F4000000000000000000000000000000000000000000000000000000000004040407D
S1235F604040404040404141414141404040404040404040404040404040404040050202CF
S1235F80020202020202020202020202022020202020202020202002020202020202909075
S1235FA0909090901010101010101010101010101010101010101010020202020202888841
S1235FC08888888808080808080808080808080808080808080808080202020240000000B5
S1235FE000000000000000000000000000000000000000000000000000000000000000009D
S123600000000000000000000000000000000000000000000000000000000000000000007C
S123602000000000000000000000000000000000000000000000000000000000000000005C
S1236040000000000000000000000000000000000000000000000000000000000072007753
S123606000286E756C6C290030580030780030002D002B00303132333435363738394142C8
S123608043444546003031323334353637383961626364656600FFFFB85C0000C05C00005A
S12360A0C85C0000B51C0000DC5C0000E45C0000FC5C0000711D0000085D0000C05C000008
S11B60C0105D0000511D00002C5D0000C05C0000345D0000151E000080
S5030307F2
S90300D527
