S010000062746C64725F696D672E73313930
S113780000300020D578000043790000917D00000D
S11378100000000000000000000000000000000064
S11378200000000000000000000000004779000094
S11378300000000000000000497900004B790000BE
S11378404F790000577900005F79000067790000E4
S11378506F790000777900007F7900008779000054
S11378608F790000977900009F790000A7790000C4
S1137870AF790000B7790000BF790000C779000034
S1137880CF790000D7790000DF790000E7790000A4
S1137890EF790000F7790000FF790000077A000013
S11378A00F7A0000177A00001F7A0000277A000080
S11378B02F7A0000377A00003F7A0000477A0000F0
S11378C028AB000080F0FF1F0800000088F0FF1FB5
S11378D0F000000010B572B601F0F4FA0D4B07E0A9
S11378E0186859681C000C349A6800F019F82300D1
S11378F0094A9342F4D306E018681C000834596816
S113790000F017F82300054A9342F5D362B602F05B
S1137910E1FEFEE7C0780000CC780000D4780000D7
S113792010B5002302E010C810C104339342FAD307
S113793010BD002302E0002204C004338B42FAD3BA
S11379407047FEE7FEE7FEE7FEE7FEE7FEE710B559
S1137950FFF7FCFF10BD10B5FFF7F8FF10BD10B521
S1137960FFF7F4FF10BD10B5FFF7F0FF10BD10B521
S1137970FFF7ECFF10BD10B5FFF7E8FF10BD10B521
S1137980FFF7E4FF10BD10B5FFF7E0FF10BD10B521
S1137990FFF7DCFF10BD10B5FFF7D8FF10BD10B521
S11379A0FFF7D4FF10BD10B5FFF7D0FF10BD10B521
S11379B000F0AEFF10BD10B501F05EF910BD10B5BA
S11379C001F06CF910BD10B5FFF7C0FF10BD10B584
S11379D0FFF7BCFF10BD10B5FFF7B8FF10BD10B521
S11379E0FFF7B4FF10BD10B5FFF7B0FF10BD10B521
S11379F0FFF7ACFF10BD10B5FFF7A8FF10BD10B521
S1137A00FFF7A4FF10BD10B5FFF7A0FF10BD10B520
S1137A10FFF79CFF10BD10B5FFF798FF10BD10B520
S1137A20FFF794FF10BD10B5FFF790FF10BD10B520
S1137A30FFF78CFF10BD10B5FFF788FF10BD10B520
S1137A40FFF784FF10BD10B5FFF780FF10BDFFFFE7
S1137A50FFFFFFFFFFFFFFFFFFFFFFFFFFFFFFFF32
S1137A60FFFFFFFFFFFFFFFFFFFFFFFFFFFFFFFF22
S1137A70FFFFFFFFFFFFFFFFFFFFFFFFFFFFFFFF12
S1137A80FFFFFFFFFFFFFFFFFFFFFFFFFFFFFFFF02
S1137A90FFFFFFFFFFFFFFFFFFFFFFFFFFFFFFFFF2
S1137AA0FFFFFFFFFFFFFFFFFFFFFFFFFFFFFFFFE2
S1137AB0FFFFFFFFFFFFFFFFFFFFFFFFFFFFFFFFD2
S1137AC0FFFFFFFFFFFFFFFFFFFFFFFFFFFFFFFFC2
S1137AD0FFFFFFFFFFFFFFFFFFFFFFFFFFFFFFFFB2
S1137AE0FFFFFFFFFFFFFFFFFFFFFFFFFFFFFFFFA2
S1137AF0FFFFFFFFFFFFFFFFFFFFFFFFFFFFFFFF92
S1137B00FFFFFFFFFFFFFFFFFFFFFFFFFFFFFFFF81
S1137B10FFFFFFFFFFFFFFFFFFFFFFFFFFFFFFFF71
S1137B20FFFFFFFFFFFFFFFFFFFFFFFFFFFFFFFF61
S1137B30FFFFFFFFFFFFFFFFFFFFFFFFFFFFFFFF51
S1137B40FFFFFFFFFFFFFFFFFFFFFFFFFFFFFFFF41
S1137B50FFFFFFFFFFFFFFFFFFFFFFFFFFFFFFFF31
S1137B60FFFFFFFFFFFFFFFFFFFFFFFFFFFFFFFF21
S1137B70FFFFFFFFFFFFFFFFFFFFFFFFFFFFFFFF11
S1137B80FFFFFFFFFFFFFFFFFFFFFFFFFFFFFFFF01
S1137B90FFFFFFFFFFFFFFFFFFFFFFFFFFFFFFFFF1
S1137BA0FFFFFFFFFFFFFFFFFFFFFFFFFFFFFFFFE1
S1137BB0FFFFFFFFFFFFFFFFFFFFFFFFFFFFFFFFD1
S1137BC0FFFFFFFFFFFFFFFFFFFFFFFFFFFFFFFFC1
S1137BD0FFFFFFFFFFFFFFFFFFFFFFFFFFFFFFFFB1
S1137BE0FFFFFFFFFFFFFFFFFFFFFFFFFFFFFFFFA1
S1137BF0FFFFFFFFFFFFFFFFFFFFFFFFFFFFFFFF91
S1137C00FFFFFFFFFFFFFFFFFFFFFFFFFEFFFFFF81
S1137C1090B589B000AFF860B9603B60FB1D1A7085
S1137C20334B1B78002B01D001235CE0304BFA1D51
S1137C3012781A70FB1D1B78062B05D050DC012B23
S1137C4002D0032B26D04BE0FA68294B5A60182443
S1137C503B19180000F0A2FF21007B18BA681A60D3
S1137C60234B5B683A687918180000F0A7FE204B94
S1137C705B680121180002F003FC1D4B5B680121C5
S1137C80180002F01DFC1A4B1A4A9A60184B1A4A43
S1137C90DA6027E0FA68164B5A6010243B19180082
S1137CA000F044FD21007B18BA681A60104B5B6831
S1137CB03A687918180000F00DFC0D4B5B6801213F
S1137CC0180002F01DFC0A4B5B680121180002F049
S1137CD037FC074B094A9A60054B094ADA6001E010
S1137CE0042300E000231800BD4609B090BDC0463F
S1137CF088F0FF1F73A60000E18B000005880000D8
S1137D005188000090B585B000AFF860B9607A6022
S1137D10BB68002B02D101235B4218E0FB68012BF6
S1137D2005D0FB68022B02D001235B420FE00A4B13
S1137D301B78002B02D101235B4208E0064B9C68B0
S1137D40054B5B687A68B9681800A04700231800DF
S1137D50BD4605B090BDC04688F0FF1F80B500AF9A
S1137D6002F0B1FC02F0A3FC02F0A8FC00F0C4FF96
S1137D70054B180002F02EFA044B1B685A1C034BE7
S1137D801A60C046F8E7C04660A8000098F0FF1FDC
S1137D9004207146084202D0EFF3098001E0EFF3BA
S1137DA0088081690A88054B9A4200D0FEE70231B7
S1137DB08161202101607047C0460000ABBE000015
S1137DC080B582B000AF7860084B1B68084A134046
S1137DD019007B689A04C0231B031A40034B0A430F
S1137DE01A60C046BD4602B080BDC0460070044063
S1137DF0FFFFF3FF80B582B000AF7860084A094BFB
S1137E00D358094A1A407B68190480235B020B404B
S1137E1003491343034A8B50C046BD4602B080BD9C
S1137E200070044004100000FFFFFEFF80B500AFA7
S1137E30064B1B68002B03D1054B180001F04EF8CC
S1137E40024B1B681800BD4680BDC0469CF0FF1F56
S1137E5078A8000080B582B000AFFFF7E7FF030009
S1137E607B607B68002B01D17B6841E0224B1B784F
S1137E70DBB2DB08DAB2FB1C07210A401A70FB1CD8
S1137E801B787A68DA4013007B601B4B5B78DBB2AB
S1137E901B09DAB2BB1C03210A401A70BB1C1B78F5
S1137EA0002B23D0FB1C1B78072B14D01BDC052BC9
S1137EB002DC002B03DA16E0062B04D013E07B6807
S1137EC05B097B6013E07B681421180002F048FC16
S1137ED003007B600BE07B680C21180002F040FC7F
S1137EE003007B6003E000237B6000E0C0467B6806
S1137EF01800BD4602B080BD0040064080B500AF0A
S1137F00074B9B79DBB21A001023134003D1FFF710
S1137F10A1FF030001E0034B1B681800BD4680BDB0
S1137F200040064080F0FF1F80B584B000AF786049
S1137F307B680E4A934204D80F23FB1800221A7060
S1137F400CE07B680A4A934204D80F23FB180122F1
S1137F501A7003E00F23FB1802221A700F23FB1878
S1137F601B781800BD4604B080BDC0469798000039
S1137F7000127A0080B582B000AF0F4A0F4BD3587D
S1137F801B0C0122134002D0012B05D00CE000F0A1
S1137F9033F803007B600AE000F070F803007B60B4
S1137FA07B685B087B6002E000237B60C0467B68E3
S1137FB01800BD4602B080BD0070044004100000EB
S1137FC080B582B000AF786009497B685B68094A74
S1137FD08B507B681B781800FFF70CFF7B685B787D
S1137FE01800FFF7EDFEC046BD4602B080BDC04696
S1137FF0007004404410000080B582B000AF1D4BF7
S11380005B78DBB21A000223134006D1194B9B792B
S1138010DBB21A002023134001D0002326E0FFF72F
S11380206DFF03007B607B68002B01D17B681DE042
S1138030104BDB78DBB25B09DAB2FB1C03210A408C
S11380401A700C4BDB78DBB2DB09DAB2BB1C012102
S11380500A401A70FB1C1978BB1C1A78064B49009D
S11380608A185200D35A1A007B6853431800BD463D
S113807002B080BD004006400CA9000080B582B06B
S113808000AF184B9B79DBB21A004023134001D197
S1138090002323E002F0B4FA03007B607B68002B2A
S11380A003D1114B180000F019FF0E4B1B79DBB202
S11380B01A001F23134001331900786802F050FBA3
S11380C003007B60074B5B79DBB21A001F2313406C
S11380D018331A007B6853437B607B681800BD46E5
S11380E002B080BD0040064098A8000090B585B05D
S11380F000AF040008001100FB1D221C1A70BB1DF8
S1138100021C1A707B1D0A1C1A70404B9B79DBB24F
S11381109B0803221340FB603C4B9B79DAB20B2093
S11381203B1801210A401A70384B1B7ADBB25B08FA
S1138130DAB20A243B1907210A401A707A1D3B1946
S113814012781B789A422ED03B181B78012B19D138
S1138150FB68012B06D02D4B1B78DBB21A000223DF
S113816013400FD0294B5B78DBB2284A01218B43A3
S1138170DBB25370C046254B9B79DBB21A00012356
S11381801340F8D1214B1B7ADBB22F229343DAB28E
S11381907B1D1B78DB18DBB20E210B40DBB21B49C5
S11381A01343DBB20B72194B5B78DBB201229343AE
S11381B0DAB2BB1D1B7801210B40DBB21349134318
S11381C0DBB24B70114B1B78DBB203229343DAB260
S11381D00E49FB1D1B781343DBB20B70FB68012BAC
S11381E004D0FB1D1B78022213400AD0C046074B63
S11381F09B79DBB21A0001231A40BB1D1B789A42FB
S1138200F5D100231800BD4605B090BD00400640DE
S113821080B584B000AF78607B68002B03D11F4B1E
S1138220180000F05BFE0F203B1800221A707B68D8
S11382305B781F221340D9B23B183A1812780A43CC
S11382401A70174A3B181B781371154B5B79DBB214
S11382501F229343DAB27B689B781F210B40DBB269
S11382600F491343DBB24B710D4B1B79DAB27B68B8
S11382701B781343DBB20A4A40210B43DBB2137170
S1138280C046074B9B79DBB21A0040231340F8D059
S1138290C046C046BD4604B080BDC046B8A8000074
S11382A000400640B0B584B000AF78607B681B68BE
S11382B00F257C191800FFF737FE030023707B6835
S11382C01B791B4A1900100002F079F97B68063308
S11382D0174A1900100002F053F9164B5B78DBB211
S11382E03C229343DAB27B191B781B01DBB23021A9
S11382F00B40DBB21343DAB27B685B790D4913435D
S1138300DBB24B707B685B79002B0DD0084B1B787C
S1138310DBB25BB2002B07DAC046064B9B79DBB2BB
S11383201A0002231340F8D0C046BD4604B0B0BDC5
S1138330005006400040064080B582B000AF020005
S11383403960FB1D1A703B68002B03D1244B1800C5
S113835000F0C4FD234B5B78DBB2224A02218B433D
S1138360DBB253701F4B1B78DBB23B221340DBB2F2
S11383701C49802252421343DBB20B70C046194B96
S11383809B79DBB21A001C231340082BF7D1154B41
S11383905B79DBB2134A40218B43DBB25371C04695
S11383A0104B9B79DBB21A0020231340F8D13B68B1
S11383B01800FFF72DFF0B4B5B79DBB2094A402114
S11383C00B43DBB25371C046064B9B79DBB21A00F8
S11383D020231340F8D000231800BD4602B080BD0E
S11383E0D4A800000040064080B582B000AF3A60D7
S11383F0FB1D021C1A70BB1D0A1C1A703B68002B63
S113840003D1134B180000F069FDFB1D1B78180005
S113841002F0FEF83A68BB1D1B7811001800FFF744
S11384208BFF0C4B1B78DBB20A4A3F210B40DBB2BB
S11384301370C046074B9B79DBB29B0803221340A1
S1138440032BF7D100231800BD4602B080BDC046FF
S1138450F0A800000040064080B584B000AF78600A
S11384607B681B0C084A94466344FB60FB681968EC
S11384707B681B041B0C01229A40FB680A431A60A8
S1138480C046BD4604B080BD0070044080B584B0D1
S113849000AF78600023FB6006E00C4A7B689342DF
S11384A006D0FB680133FB60FB68002BF5D000E0CD
S11384B0C046FB68002B03D0054B180000F00EFDEE
S11384C0FB681800BD4604B080BDC04600A006404D
S11384D01CA90000B0B58CB000AFF860B9607A6038
S11384E0BB68002B03D18D4B180000F0F7FCBB6870
S11384F01B68002B03D18A4B180000F0EFFC2C23DF
S1138500FB1800221A8000237B62BB681B68BB61D6
S113851004233B625AE0BB681B683A6A5343190060
S1138520786802F01DF903001A002A217B181A80CA
S11385300A00BB181B88002B02D1BB1801221A8029
S11385402A257B191B883A6A53431900786802F07C
S113855007F903007B61BB681B687A69D31AFB6166
S1138560BB681C687B191B8801331A003B6A5343A0
S11385701900786802F0F4F80300E31AFA699A42E1
S113858013D9BB681C687B191B8801331A003B6A2A
S113859053431900786802F0E3F80300E31AFB611F
S11385A07B191A887B1901321A80FA69BB699A42CD
S11385B009D8FB69BB613B6A7B622C23FB182A2226
S11385C0BA1812881A803B6A01333B623B6A202B3B
S11385D0A1D9BB681B686421180002F0C1F803002C
S11385E01A0013005B009B18BA699A4201D94D4BDB
S11385F090E0FB681800FFF749FF4B4B1800FFF7AA
S11386002BFFFB68DB78DBB20C229343DAB2FB6806
S1138610DA707B6A032B0AD97B6A072B07D8FB68BD
S1138620DB7ADBB202221343DAB2FB68DA72FB684C
S11386309B7ADBB21F229343DAB27B6ADBB2013B43
S1138640DBB21343DAB2FB689A72FB689B7ADBB243
S11386501F229343DAB22C217B181B881B0A9BB27E
S1138660DBB21343DAB2FB681A707B181B88DAB2E8
S1138670FB685A70FB689B78DAB22F203B181321F1
S11386808A431A70BB681B79002B09D0BB681A791E
S11386903B181B781343DAB23B1810210A431A70B3
S11386A0FB682F203A1812789A70FB681B78DBB2AB
S11386B020229343DAB2FB681A70FB681B78DAB2A3
S11386C0BB685B795B01DBB220210B40DBB2134357
S11386D0DAB2FB681A703B18FA68D2781A70BB6871
S11386E09B79002B05D03B183A18127808210A43CD
S11386F01A70BB68DB79002B06D02F22BB18BA187E
S1138700127804210A431A70FB682F22BA181278CF
S1138710DA7000231800BD460CB0B0BD54A90000A7
S113872070A90000B50400000A00341080B582B0BE
S113873000AF78607B68002B03D10C4B180000F06D
S1138740CDFB7B68E12252021A607B6800221A7119
S11387507B6800225A717B6800229A717B68002230
S1138760DA71C046BD4602B080BDC04698A900007B
S113877080B584B000AF786039600B217B1800228B
S11387801A707B181B78DBB20133DAB27B181A70CB
S11387903A6880231B02134006D07B6880225A71FA
S11387A03B68154A13403B603A688023DB01134061
S11387B006D07B6840225A713B68104A13403B60E4
S11387C03B681F2213400AD03B68DBB21F221340D0
S11387D0DAB27B681A713B681F2293433B603B68A3
S11387E0002B02D0064BFB6001E00023FB60FB681A
S11387F01800BD4604B080BDFF7FFFFFFFBFFFFF31
S1138800B404000080B584B000AFF860B9607A6049
S1138810BB68002B10D10D4B180000F05FFBC04665
S1138820FB681B79DBB25BB2002BF9DABB685A1C1C
S1138830BA601A78FB68DA717B685A1E7A60002B7A
S1138840EDD1C046C046BD4604B080BDB4A9000009
S113885080B586B000AFF860B9607A60BB68002B61
S113886044D1274B180000F039FBFB68180001F0D5
S1138870DAFE03007B617B690822134007D0FB68A2
S113888008211800FFF774FF9723DB0034E07B69AD
S11388900422134006D0FB6804211800FFF768FF88
S11388A0184B29E07B690222134006D0FB680221A1
S11388B01800FFF75DFF144B1EE07B690122134093
S11388C006D0FB6801211800FFF752FF0F4B13E09D
S11388D0FB681B79DBB21A0020231340C5D0BB68A8
S11388E05A1CBA60FA68D279D2B21A707B685A1EDE
S11388F07A60002BECD100231800BD4606B080BD81
S1138900CCA90000B9040000BA040000BB040000B4
S113891080B500AF044B1A68044B1B680448190067
S11389209047C046BD4680BDA4F0FF1FA0F0FF1FC6
S113893000A0064080B584B000AF78607B681B0C53
S1138940084A94466344FB60FB6819687B681B040F
S11389501B0C01229A40FB680A431A60C046BD46BC
S113896004B080BD0070044080B584B000AF78606E
S11389700323BB600023FB6009E00E4BFA689200FE
S1138980D3587A689A4207D0FB680133FB60FA68CF
S1138990BB689A42F1D300E0C046FA68BB689A42C9
S11389A003D3054B180000F099FAFB681800BD4684
S11389B004B080BDE4A90000FCA90000B0B586B0F5
S11389C000AFF860B9607A60BB68002B03D16F4BCD
S11389D0180000F083FABB681B68002B03D16C4BB2
S11389E0180000F07BFA16243B1900221A80152384
S11389F0FB1800221A7000233B61BB681B681B0133
S1138A001900786801F0ACFE03001A003B191A80C3
S1138A103B191B88002B02D13B1901221A80162511
S1138A207B191B881B011900786801F099FE03006B
S1138A301A00BB681B68D31A3B61BB681C687B19AE
S1138A401B8801331B011900786801F089FE0300BB
S1138A50E31A3A699A4211D9BB681C687B191B88CE
S1138A6001331B011900786801F07AFE0300E31A50
S1138A703B617B191A887B1901321A80BB681B6819
S1138A806421180001F06CFE03001A0013005B005F
S1138A909B183A699A4201D93E4B72E0FB68180070
S1138AA0FFF762FF02003C4B9200D3581800FFF717
S1138AB041FFFB68DB78DBB20C229343DAB2FB683C
S1138AC0DA70FB681B78DBB21F229343DAB21621FB
S1138AD07B181B881B0A9BB2DBB21343DAB2FB6818
S1138AE01A707B181B88DAB2FB685A70FB689B7893
S1138AF0DAB215203B1813218A431A70BB681B791C
S1138B00002B09D0BB681A793B181B781343DAB2DF
S1138B103B1810210A431A70FB6815203A18127882
S1138B209A70FB681B78DBB220229343DAB2BB68ED
S1138B305B795B01DBB220210B40DBB21343DAB279
S1138B40FB681A703B18FA68D2781A70BB689B7974
S1138B50002B05D03B183A18127808210A431A70E2
S1138B60BB68DB79002B06D01522BB18BA18127823
S1138B7004210A431A70FB681522BA181278DA70B5
S1138B8000231800BD4606B0B0BDC04628AA0000A8
S1138B9044AA0000F5030000F0A9000080B582B0EB
S1138BA000AF78607B68002B03D10C4B180000F0F9
S1138BB095F97B68E12252021A607B6800221A71DF
S1138BC07B6800225A717B6800229A717B680022BC
S1138BD0DA71C046BD4602B080BDC0466CAA000032
S1138BE080B586B000AFF860B9607A60BB68002BCE
S1138BF030D11D4B180000F071F9FB68180001F02A
S1138C0025FD03007B617B690822134001D0174BCB
S1138C1026E07B690422134001D0154B20E07B69D8
S1138C200222134001D0134B1AE07B690122134046
S1138C3002D0FD239B0013E0FB681B79DBB21A0012
S1138C4020231340D9D0BB685A1CBA60FA68D27981
S1138C50D2B21A707B685A1E7A60002BECD10023C2
S1138C601800BD4606B080BD88AA0000F1030000CC
S1138C70F2030000F303000080B500AF044B1A6850
S1138C80044B5B68044819009047C046BD4680BD4C
S1138C90B4F0FF1FA8F0FF1F00B0064080B500AF7E
S1138CA0044B1A68044B9B68044819009047C0465B
S1138CB0BD4680BDB4F0FF1FA8F0FF1F00C00640F2
S1138CC080B582B000AF7860084A094BD358094A8E
S1138CD01A407B689906C0231B050B4003491343C4
S1138CE0034A8B50C046BD4602B080BD00700440AC
S1138CF004100000FFFFFFF380B582B000AF012035
S1138D00FFF7DEFFFFF736F903007B607B68E122A3
S1138D10510204480322FEF77BFFC046BD4602B061
S1138D2080BDC04600A0064080B500AF034A044B96
S1138D300449D150C046BD4680BDC04600700440C1
S1138D40441000000000031080B582B000AF7860CA
S1138D50034B7A681A60C046BD4602B080BDC04667
S1138D609CF0FF1F80B582B000AF0200FB1D1A709B
S1138D700A4B1B78DBB238229343DAB2FB1D1B7813
S1138D80DB00DBB238210B40DBB204491343DBB216
S1138D900B70C046BD4602B080BDC04600400640D0
S1138DA080B500AFFFF7C0FF104B1800FFF77AFA49
S1138DB00F4B1800FFF7C8FF00231800FFF7D2FF7E
S1138DC00C4B1A0000210020FFF70EFB02230021A8
S1138DD000221800FFF78AF9074B1800FFF7F0F894
S1138DE0064B074A1A60C046BD4680BDB4AA0000BF
S1138DF000127A00A7AA0000ACAA000084F0FF1FAA
S1138E00006CDC0280B584B000AF78607B681B0C1A
S1138E10084A94466344FB60FB6819687B681B043A
S1138E201B0C01229A40FB680A431A60C046BD46E7
S1138E3004B080BD0070044080B584B000AFF86019
S1138E40B960FB1D1A70FB68BA689200D358094ACE
S1138E501A40FB1D1B781902E023DB000B401A4368
S1138E601100FB68BA689200D150C046BD4604B0F8
S1138E7080BDC046FFF8FFFF80B500AF0D4B180062
S1138E80FFF7C0FF0C4B022201211800FFF7D4FFAB
S1138E90094B022202211800FFF7CEFF074A084BB4
S1138EA0D358064907229343054A8B50C046BD4612
S1138EB080BDC04609003810009004400070044092
S1138EC01010000080B500AF034A88235B01002125
S1138ED0D150C046BD4680BD0070044070B5050049
S1138EE00E4C0F48210001F016FC2100280001F06F
S1138EF012FC0C4A111DCB6F013BCB67002B07DB27
S1138F00936F591C91670A221A7001F0E9FB70BD36
S1138F1021000A2000F028F8F7E7C04630F1FF1FCF
S1138F20C0AA0000B8F0FF1F2023C26810B59A43FE
S1138F30C2608369826A040093420CD000F0BCF8DA
S1138F40E368074A1A4010231343E360A36AA3614A
S1138F502369E3622360E268024B1340E36010BDBF
S1138F60EFCFFFFFBFBFFFFFF8B5CA684F4B050047
S1138F7013400C00CB60930602D50800FFF7D4FF22
S1138F80A268E668531C0FDAB3050DD402235B42D2
S1138F909B1AA36090235B021E432368E6605A1C5D
S1138FA022601D70E8B20AE0414A3240022A07D02A
S1138FB00023A36080331E43E66001204042F8BDD5
S1138FC080213C4B090233408B420AD1002120000E
S1138FD000F04EF9E3689B0602D52000FFF7A4FFDA
S1138FE0E6689023F0225B0233431201E3601642E9
S1138FF010D1606901F028FC002821D073051FD529
S113900023002433236123600123E36192235B0261
S11390103343E36090210901226826690B4225D07D
S1139020E36A9A4200D91300991BB34217D1731C07
S1139030E3622360E3695A1EA26023633570B1E7DB
S113904080277F00380000F003F99423E2685B0274
S113905033431A4320612060E761E260DAE72200CB
S1139060300000F059F80028E1D0A6E7511CE8B21E
S113907021601070E26A21688A4200D91100E26915
S1139080891B22635B0504D40A2802D08A4200DDCE
S113909088E7002322003000E6622660A36000F027
S11390A03BF8002800D088E77CE7C046FFFFF7FFC5
S11390B08A10000010A00000C368154A70B51A4059
S11390C0C2608222040005690168C66A1A40022A45
S11390D002D00120404270BD80221800520210408C
S11390E01342F8D0B14200D231008D4208D10020A1
S11390F0E268084BE56213402560A060E360EAE79C
S113910022002800491B00F007F80028EFD0E0E710
S1139110FFFFF7FFFFFFFEFFF7B5D5680F00140050
S113912056690190EB0205D5102330001D4301F070
S113913088FBA061104B1D420FD03000A16901F0E3
S113914089FB002806DA80230120E26840421343A9
S1139150E3600FE0094B1D40E56001993A003000DF
S1139160FEF7D0FD4100A3694908791A5918A16195
S11391700028E8D1FEBDC04610000200EFFFFDFF4D
S1139180F7B50027314BC21C1C689508B84215D0AE
S11391902B000A330193EB1C9C46002C10D10C309D
S11391A001F092F8431C09D080239B0503604560BD
S11391B08460002F48D1254B18601EE00020FEBDBE
S11391C08021236849058B423BD1A7686368002F3F
S11391D00BD0802639687605B14206D1796803330D
S11391E0CB186360BB68A360EFE7AB4207DB634562
S11391F005DC80239B05236020000C30DFE7019908
S11392008B4211D9802189052160032120008A43E2
S113921080210C305B1B82184905033B6560A2600A
S1139220116053609760CAE7002F0AD19B00C01AEF
S113923001F04AF8431CC1D080239B05236065607C
S1139240DAE72700A468A8E7B860D6E770F1FF1F43
S113925010B5FFF795FF041E05D117220349FEF749
S113926051FD01F03DFA200010BDC046D5AA000012
S1139270F7B5394BC66804000D0000921E4202D1B6
S113928002273800FEBD43691800019301F0DCFA9F
S1139290071EF5D1009B012B05D0022B2CD0002BEF
S11392A005D00237EDE7200000F05AF82D18002D04
S11392B0E6DBB30404D52368E26A9A4200D2E3628F
S11392C0A169A9420EDCE26A2368934200D213002A
S11392D0226958180092801AA84203DB206B0A18EE
S11392E0AA4228DC20231E430023A562A3606360F6
S11392F01A4B1E40E660C4E7019801F0A2FAE26846
S1139300002804DA802313430127E360B9E7E16A04
S11393102368994200D90B00A1695B1821695B1A83
S1139320920603D5A26A934200DA1300834200DA5C
S11393300300ED18BBE76D1AB20701D5281AA06027
S1139340F20703D5009A9B1AEB1A6360009B5D1920
S1139350202325609E43CBE703001000BFCFF7FF17
S1139360C268930705D1212201200E4B40421A60A6
S113937070472023134012030AD5002B02D0806AC1
S11393800138F5E70368826900699B18181AF7E742
S1139390002B01D0806AEBE70368826900699B189F
S11393A0181AE5E774F1FF1F37B5184C1849220065
S11393B0002000F0ABFF802380225B00002120000E
S11393C0D20000F02FFF134C134D2200290001207E
S11393D000F09CFF802380225B0000212000D2004B
S11393E000F020FF0D4B1B680193022B0DDD0C4C8C
S11393F029002200022000F089FF8023802200211E
S113940020005B00D20000F00DFF37BDB8F0FF1F55
S1139410EDAA0000F4F0FF1FEFAA0000BCAA0000B0
S113942030F1FF1FF0B5CFB00A92559A04000892AC
S113943000220B93549B069218785A1C079200281A
S113944002D106984FB0F0BD252839D104228021DD
S1139450002502279446079B243889001A001678B1
S113946001332B2E4FD046D8202E4ED0232E4FD052
S11394702A2E4FD1089980C9002F02DA01207F4299
S1139480454002321E7807920891FB43DB173B40AC
S1139490149300230C932E2E57D1079B1E782A2E4B
S11394A045D00A2101333200303AD0B2079309285B
S11394B046D80C981E78484312180C920133F2E7F0
S11394C0069B0B9A5D1CDB179A4204DC0CD10A9BA9
S11394D0069A934208D9A368013BA360002B06DBDC
S11394E023685A1C22601870079B0695A4E7210084
S11394F0FFF73AFDF8E72D2E03D0302EB8D10D43F7
S1139500ACE70543AAE73D43A8E762461543A5E750
S11395100822FBE700270A203200303AD1B2079331
S11395200929B2D847431E78D7190133F4E7089BB9
S113953004CB0C92079A08931300567802330793CE
S11395400C9B002B18DB10231D436C2E09D1079BA9
S11395501E786C2E13D15E7860231D43079B023363
S113956007934C2E01D0712E0FD1079B1E786023D8
S11395701D43079B013314E000230C93E5E7079B8D
S11395800133079320231D43EBE7682E70D1079B1B
S11395901E78682E07D180235B001D43079B5E78ED
S11395A00233079304E0079B0133079380231D4391
S11395B0782E09DC572E67DC412E00D1FDE200DD58
S11395C089E0002E00D1EDE0149B0122013B0C93B5
S11395D02B0013403993069B15421DD13023389339
S11395E0AB0501D420233893069B0C9D2493DB17F1
S11395F02593013D00D48EE000239F4200DD0C9BA7
S1139600069A9B18149A911E0022974202DD149820
S11396100132121A52180C920B995A1C0692DA173C
S1139620914203DC0CD10A9A9A4209D9A368013BFE
S1139630A360002B00DA8FE023685A1C22601E709E
S1139640399B089F002B10D0069B0C9D2293DB179F
S11396502393013D00D484E00C9B0C9ADB43DB177D
S11396601340069AD3180693089F069D08973BE774
S11396706A2E04D140231D43079B1E787AE77A2E75
S1139680FAD0742E94D1F7E73000583820289BD8AC
S113969001F0CCF866019AFF9AFF9AFF9AFF9AFFAD
S11396A09AFF9AFF9AFF93029AFF3D0059022700FE
S11396B0270027009AFF59029AFF9AFF9AFF9AFF00
S11396C08C00C801BE019AFF9AFFAC009AFFF0011A
S11396D09AFF9AFF9501022332009A43452A00D04B
S11396E072E78023DB002B43EA0601D406220C92A6
S11396F01D00002200230721049205930023089FE4
S1139700389307378F4303CF4490459188E1089BF2
S113971040CB089358E70B9B259A934204DC0DD168
S11397200A9B249A934209D9A368013BA360002BA6
S11397300DDB23685A1C2260389A1A700120249A7F
S1139740259B002112184B412492259351E72100B7
S11397503898FFF709FCF1E721003000FFF704FC1B
S11397606EE70B9B239A934204DC0DD10A9B229A49
S1139770934209D9A368013BA360002B0DDB236846
S11397805A1C226020221A700120229A239B002155
S113979012184B41229223935BE721002020FFF70C
S11397A0E3FBF1E7079B013B07935DE7089B1F1D64
S11397B06B0606D5089B069A1B681A60D2175A6076
S11397C053E7AB0604D5089B069A1B681A604CE75E
S11397D0EB0504D5089B069A1B681A7045E72B060F
S11397E0F1D5089B069A1B681A803EE7089F08CFAC
S11397F03893002B01D1C64B3893389800F038FDCC
S11398000600EB0603D50C9B984200DD1E00149B5A
S11398102A009B1B089301231A4014921D4218D15D
S11398202F330C93AB0501D420230C93069B089D86
S11398301A93DB171B93013D2CD5089B089ADB4335
S1139840DB171340069AD2180692089A013AD31AE3
S113985008930025069B2093DB172193B5423ADB3E
S1139860F043069BC01706409B190693149B002BDC
S113987000D1FAE6069B089D2693DB172793013D4A
S11398804DD5089B089ADB43DB171340069AD3187F
S11398900693EAE60B9B1B9A934204DC0DD10A9BC8
S11398A01A9A934209D9A368013BA360002B0DDBEC
S11398B023685A1C22600C9A1A7001201A9A1B9B66
S11398C0002112184B411A921B93B4E721000C9803
S11398D0FFF74AFBF1E70B9B219A934204DC0ED17C
S11398E00A9B209A93420AD9A368013BA360002BE8
S11398F00FDB23685A1C2260389A525D1A700120CB
S1139900209A219B002112184B410135209221936A
S1139910A4E7389B2100585DFFF726FBEFE70B9B7C
S1139920279A934204DC0DD10A9B269A934209D9C3
S1139930A368013BA360002B0DDB23685A1C226043
S113994020221A700120269A279B002112184B41CD
S11399502692279393E721002020FFF705FBF1E7E8
S113996040232A00089F1A401D421DD007220737B2
S113997097430CCF0492059380232A001A401D427A
S113998016D06B461B8A049300230593614B9C46B7
S11399902B0701D4604B9C46604B3893EB0600D4F4
S11399A08AE05F490D4087E008CF05920493E3E71E
S11399B0EB05EBD56B461B7C05920493E6E740234D
S11399C02A00089F1A401D4217D0072207379743E1
S11399D00CCF0492059380232A001A401D4210D014
S11399E06B461B8A0493002305934E4B9C462B071E
S11399F001D4494B9C464C4BCFE708CF05920493C6
S1139A00E9E7EB05F1D56B461B7C05920493ECE783
S1139A10089F08CF049300230593434B3893414B8D
S1139A209C4649E040232A00089F1A401D4216D054
S1139A300722073797430CCF0492059380232A000B
S1139A401A401D420FD06B461B8A049300230593D2
S1139A50364B9C462B0700D5ADE02F4B8FE008CF4B
S1139A6005920493EAE7EB05F2D56B461B7C05925D
S1139A700493EDE740232A00089F1A401D4257D063
S1139A800722073797430CCF0492059380232A00BB
S1139A901A401D4250D06B461B8A04930023059341
S1139AA010212B001C480B40844638930D4203D0F0
S1139AB01B4B1D4000233893069B0A980B993E9339
S1139AC0DB173F933E9A3F9B801A994101220C9BDE
S1139AD05242409363460890099142924392552022
S1139AE00022419346A950540132202AFBD18222FC
S1139AF0D200154201D1012240926E2E65DC472E20
S1139B0000DD92E0402E00DD83E000230C9392E020
S1139B10F1AA0000F8AA0000ECAA000004AB0000BF
S1139B20FFFDFFFFFBAA000015AB0000FEAA00002A
S1139B3008CF05920493A9E7EB05B1D56B461B7CCE
S1139B4005920493ACE7089F6B061AD507220737E2
S1139B5097430CCF0E920F932B0617D56B463822E2
S1139B609B5E0E93DB170F930F9B002B16DA0E9858
S1139B700F99002342428B4104920593C54B9C46A6
S1139B8019E008CF0E93DB170F93E5E7EB05EBD550
S1139B906B4638229B181B785BB2E2E70E9A0F9B48
S1139BA004920593BC4B9C46AB0704D4BB4B9C4628
S1139BB06B0700D451E70023EFE610231D4200D0C9
S1139BC08FE51D43033B0C938BE530006F38092868
S1139BD09BD800F02BFECC00B2009AFF9AFF9AFFAC
S1139BE09AFF47019AFF9AFFB20000F01FFEA600F9
S1139BF08EFF8EFF8EFF8EFF8EFF8EFF8EFF8EFFF9
S1139C003D018EFF8EFF3B013D013D013D018EFF75
S1139C103B0132000123413A934051221800104085
S1139C20134200D020E10C9005E0300000235838A6
S1139C300C931128D9D980232A00DB001A403A92C8
S1139C401D4200D11FE100234093429B002B01DD04
S1139C50013B4093439B002B03DD409A013BD31807
S1139C6040930C9B409A41989E1800F001FB149B72
S1139C709E1B331A389301232B403B93884B1D4280
S1139C8000D13CE100231293DB171393419B129EF6
S1139C905A1C41921B781493002B00D032E13B9B59
S1139CA0002B15D130333993AB0501D420233993DC
S1139CB0F317389D1C961D93013D00D443E1389B56
S1139CC038995A1EDB43DB170B40D21A3892F61828
S1139CD03A9B002B00D08FE1F31710961193409B11
S1139CE0109E013B4093002B00DBD7E1F3171F9339
S1139CF00C9B1E965D1E002B00DDF0E10C9BD843EF
S1139D00C017184086197BE10F23049E1E40389B20
S1139D109E5D059B56541B079C46049B01321B0900
S1139D201800059B1E096346034304930596049E8D
S1139D30059B0C921E43E7D17DE7002246A9F6E776
S1139D400721049808400599303049078C46049946
S1139D509854CE0805990133C808614631430491EB
S1139D600590049805990C930843E9D163E700230F
S1139D7046AAF6E7059B049ADB0752081A43059B9B
S1139D8032925B083393049A059B92089B071A430B
S1139D90059B34929B08359334983599329A339BBA
S1139DA012184B4119071009084319092C902D91D9
S1139DB02C982D9912184B411906100A0843190AB8
S1139DC02E902F912E982F9912184B411904100C94
S1139DD00843190C309031913098319912184B4145
S1139DE000213C933D913C983D9912184B415907F1
S1139DF0D00808432A9000210620DB082B93049AFC
S1139E00059B12184B412A982B990C920D930A2208
S1139E10002300F0DFFC0C9A0D9B121A8B411000FA
S1139E20190002091B071A430B0936923793369817
S1139E3037992A9A2B9B801859410A224243049B42
S1139E400490059130339B1A9C4628233CAAD218CF
S1139E50634693550136049B059A0C96134300D030
S1139E6088E7E8E60026F6E743AB039342AB0293A8
S1139E7040AB019341AB009330002B00569E46AAA1
S1139E8044A9B047CFE6409B0C9A9B1A00D4E7E65E
S1139E903A9BE5E600AB000002AB0000D3AA000049
S1139EA001020000099B159A934204DC0DD1089B22
S1139EB0149A934209D9A368013BA360002B19DBD0
S1139EC023685A1C226020221A700120149A159BC0
S1139ED0002112184B4114921593389B5A1E149B5F
S1139EE0D31ADFD5389B3899DB43DB170B40D21AE2
S1139EF03892C8E621002020FFF736F8E5E7002273
S1139F000023E8E7099B139A934204DC0DD1089BD4
S1139F10129A934209D9A368013BA360002B0DDB7D
S1139F2023685A1C2260149A1A700120129A139BF7
S1139F30002112184B4112921393A7E621001498A2
S1139F40FFF712F8F1E7099B1D9A934204DC0DD147
S1139F50089B1C9A934209D9A368013BA360002B78
S1139F600DDB23685A1C2260399A1A7001201C9A4E
S1139F701D9B002112184B411C921D939CE621004D
S1139F803998FEF7F1FFF1E7149A46ABD05CF3176A
S1139F903C2825D03E286BD116961793439B169DDB
S1139FA0013B4393002B23DB099B179A934204DC68
S1139FB00DD1089B169A934209D9A368013BA3606B
S1139FC0002B50DB23685A1C226030221A700120B7
S1139FD0169A179B002112184B4116921793DDE72E
S1139FE018961993429B189D013B4293002B19DA52
S1139FF02E00149B013314930C9B149A9342C3DCDC
S113A0003B9B002B0BD0F317389D28962993013DD9
S113A01000D486E0389BD843C01718403618069BF6
S113A0209B1935E4099B199A934204DC0DD1089BD2
S113A030189A934209D9A368013BA360002B0DDB56
S113A04023685A1C226030221A700120189A199B26
S113A050002112184B4118921993C3E721003020B4
S113A060FEF782FFF1E721003020FEF77DFFAEE727
S113A070099A751C934203DBBAD1089BB342B7D942
S113A080A368013BA360002B04DB23685A1C2260F5
S113A0901870ADE72100FEF767FFA9E7099B119A45
S113A0A0934204DC0DD1089B109A934209D9A3680A
S113A0B0013BA360002B0DDB23685A1C2260302275
S113A0C01A700120109A119B002112184B41109212
S113A0D0119304E621003020FEF746FFF1E7099BC7
S113A0E01F9A934204DC0ED1089B1E9A93420AD90C
S113A0F0A36846AA013B505DA360002B0DDB2368D7
S113A1005A1C2260187001201E9A1F9B00211218ED
S113A1104B411E921F932B00ECE52100FEF724FF18
S113A120F1E7099B299A934204DC0DD1089B289AF4
S113A130934209D9A368013BA360002B0DDB23687C
S113A1405A1C226020221A700120289A299B00217F
S113A15012184B412892299359E721002020FEF739
S113A16003FFF1E7F0B507000C0015001E0097B0DF
S113A170002803D1002926D1013406AF3C22002156
S113A18007A800F0AEFA0A23621E00240A930F4BBC
S113A190009509930E4B0196029307A82300079795
S113A1A0FFF740F9099B05000593013B0993A3427E
S113A1B004DB079B1C70280017B0F0BD200007A922
S113A1C0FEF7D2FEF7E701256D42F4E7FFFFFF7FBC
S113A1D045A700000FB473B506AB40CB0121320094
S113A1E068460193FFF7BEFF041E14DD451C2800DA
S113A1F0FEF7C6FF009000280DD032002900019B15
S113A200FFF7B0FF064B22000099186DFDF77AFDA9
S113A210009800F06AFA200076BC08BC04B0184725
S113A220B8F0FF1FF0B5C56804000120AE070CD0DC
S113A23080208000824213D08020C000824205D05A
S113A2408020400082420BD0FF38F0BD2100012362
S113A25024312A43002021612160E361E260F4E7B4
S113A260024F5E1E0120BE42F3D9EEE7FEFFFF005F
S113A270032310B5411C0200184217D1104C136877
S113A280104818189843204217D0DCB2501C002CF8
S113A29011D0FF242402901C23420CD0FF20000480
S113A2A00340581E8341D318D81C04E00130421ED9
S113A2B01278002ADFD1401A10BD0432DFE7C0460D
S113A2C080808080FFFEFEFE70B50D4D04002B687B
S113A2D0002B01D10B4B2B6003232E6803349C43CA
S113A2E03419200000F09CF8002802D12C603000C2
S113A2F070BD0C220126044B76421A60F7E7C04673
S113A3006CF1FF1F78F1FF1F74F1FF1FF7B50D000B
S113A31001901000140000F033F82B78722B1CD03D
S113A320772B1DD0612B26D1144A593B0220691C7E
S113A330032784460426012508782B2813D0622895
S113A34016D0E260019A62611B0704D50222002143
S113A3502000FEF78DFF2000FEBD00230122E5E76B
S113A36004230222E2E760463A4303430131E3E770
S113A37032432B43FAE70024EDE7C0460280000095
S113A380F0B5C568040089B0AB0722D02B0718D4F8
S113A3904769066900F022F8380000F04FFA2B05EF
S113A3A002D5300000F0A1F90B4BAD0DAD059D4277
S113A3B007D120226846216A00F04FFA684600F06F
S113A3C0C3F93C220021200000F08BF9002009B0E1
S113A3D0F0BD01204042FAE7000080AD73B50028CB
S113A3E013D000F029F80500280076BD3000604342
S113A3F0094BC01800F020F8002801D001256D4257
S113A4000134019BA342F1DCEEE7044B04001B681A
S113A41005003C260193F4E7B8F0FF1FBCAA000036
S113A42003000448002803D0002283425241100054
S113A4307047C04678F5FF1FC36870B503221E003D
S113A44004001640134211D09B0611D5856AFEF70D
S113A4506BFDE268094B20001340E360FEF72CFE1D
S113A4600022060029002000FEF702FF300070BD24
S113A470036882699D180369ED1AEAE7FFCFFFFFBD
S113A48080B582B000AF78600A00FB1C1A70FB1C18
S113A4901B78002B08D07B68DB78DBB208221343DF
S113A4A0DAB27B68DA7007E07B68DB78DBB208221B
S113A4B09343DAB27B68DA70C046BD4602B080BD11
S113A4C080B582B000AF78600A00FB1C1A70FB1CD8
S113A4D01B78002B08D07B68DB78DBB204221343A3
S113A4E0DAB27B68DA7007E07B68DB78DBB20422DF
S113A4F09343DAB27B68DA70C046BD4602B080BDD1
S113A50080B582B000AF78600A00FB1C1A70FB1C97
S113A5101B78002B08D07B68DB78DBB2082213435E
S113A520DAB27B68DA7007E07B68DB78DBB208229A
S113A5309343DAB27B68DA70C046BD4602B080BD90
S113A54080B582B000AF78600A00FB1C1A70FB1C57
S113A5501B78002B08D07B68DB78DBB20422134322
S113A560DAB27B68DA7007E07B68DB78DBB204225E
S113A5709343DAB27B68DA70C046BD4602B080BD50
S113A58080B584B000AF786039600F203B187A68DA
S113A59012781A703B183A1812785F210A401A7020
S113A5A03B6819783B183A1812780A431A707B688A
S113A5B03A1812781A70C046BD4604B080BD80B502
S113A5C084B000AF78600A00FB1C1A700F203B189F
S113A5D07A6812781A703B183A1812780F218A4355
S113A5E01A703B183918FA1C097812780A431A7041
S113A5F07B683A1812781A70C046BD4604B080BD14
S113A60080B500AFFDF712FC03001800BD4680BD05
S113A61080B582B000AF0200FB1D1A700023180041
S113A620BD4602B080BD80B584B000AF78607B6861
S113A6301B79DBB21A007B685B79DBB21B02134324
S113A640FB60FB681800BD4604B080BD80B584B0D3
S113A65000AF78607B681B79DBB21A007B685B799A
S113A660DBB21B021343FB60FB681800BD4604B059
S113A67080BD80B584B000AFF860B9607A600CE04A
S113A680C046FB681B79DBB25BB2002BF9DABB680E
S113A6905A1CBA601A78FB68DA717B685A1E7A60B1
S113A6A0002BEDD1C046C046BD4604B080BD80B588
S113A6B000AFFEF775FBC046BD4680BD80B500AF58
S113A6C0C046BD4680BD80B500AFFEF7D5FBC04691
S113A6D0BD4680BD10B5FEF767FEFDF73FFB10BD1C
S113A6E0FEE710B500F08DF810BD10B5002811D0AC
S113A6F080210C38490501608268002A0AD0136859
S113A7008B4207D14368546803331B194360936831
S113A7108360F1E710BD70B50C00050028780028AF
S113A7200FD0A368013BA360002B05DB23685A1CF0
S113A730226018700135F1E72100FEF715FC431C77
S113A740F8D170BD0020704710B50400FFF790FDEC
S113A7500100200000F07BF810BD03000B4321D45E
S113A760002931D00122D207030901E009011209AD
S113A7709942FBD9430801E0490052089942FBD9A8
S113A78000E04908401A07D35241FAD30146104663
S113A790704749084018F7D29218FAD34018014676
S113A7A010467047CB0F00D04942021000D54042FA
S113A7B0534008B5FFF7D4FF0CBC521000D34042FD
S113A7C0002A00D549421847F446002000F001F859
S113A7D06047704710B543435143C918040C130C28
S113A7E05C43091992B2040C544380B2434350436E
S113A7F02204240C801861411A041B0C801859414E
S113A80010BD8446043A09D3830707D109060B0A0D
S113A81019430B0C1943043A02C0FCD2043203D08E
S113A82001700130013AFBD1604670478C46411EED
S113A8307144095E49008E446146704701204042DC
S113A8407047012040427047012040427047012078
S113A8504042704701204042704701204042704707
S113A8604966207468697320776F726B7320492777
S113A8706C6C206372790A002E66736C5F636C6F74
S113A880636B2E633A323235203A20675F78746105
S113A8906C304672657100FF2E66736C5F636C6F7B
S113A8A0636B2E633A353937203A206D6367706CD9
S113A8B06C30636C6B00FFFF2E66736C5F636C6FB0
S113A8C0636B2E633A373630203A20636F6E6669C5
S113A8D06700FFFF2E66736C5F636C6F636B2E63A0
S113A8E03A31333830203A20636F6E66696700FF6F
S113A8F02E66736C5F636C6F636B2E633A31353411
S113A90039203A20636F6E66696700FF8002DC02BB
S113A9100005B80580079508000A710B2E66736C54
S113A9205F6C707363692E633A313434203A206962
S113A9306E7374616E6365203C2041525241595FCD
S113A94053495A4528735F6C707363694261736538
S113A950732900FF2E66736C5F6C707363692E63DA
S113A9603A323135203A20636F6E66696700000021
S113A9702E66736C5F6C707363692E633A32313682
S113A980203A20636F6E6669672D3E62617564527A
S113A9906174655F427073002E66736C5F6C7073D4
S113A9A063692E633A333431203A20636F6E6669EB
S113A9B06700FFFF2E66736C5F6C707363692E63B0
S113A9C03A353231203A2064617461002E66736C2A
S113A9D05F6C707363692E633A353336203A2064B2
S113A9E0617461000000000000B0064000C0064031
S113A9F0000000000B0034100C0034102E66736C41
S113AA005F756172742E633A313639203A20696E6B
S113AA107374616E6365203C207561727441727257
S113AA206179436F756E74002E66736C5F75617225
S113AA30742E633A323132203A20636F6E6669674E
S113AA40000000002E66736C5F756172742E633AA9
S113AA50323133203A20636F6E6669672D3E62613E
S113AA607564526174655F42707300FF2E66736C87
S113AA705F756172742E633A333439203A20636F00
S113AA806E66696700FFFFFF2E66736C5F75617207
S113AA90742E633A353732203A206461746100FFC2
S113AAA007020000000000000100FFFF0103000096
S113AAB00000011000127A0000048000030000006E
S113AAC02A2A2A20617373657274206661696C6531
S113AAD064203A20002A2A2A205F437379735F6135
S113AAE06C6C6F63206661696C65640A0072007740
S113AAF000286E756C6C29003058003078003000E6
S113AB002D002B0030313233343536373839414259
S113AB1043444546003031323334353637383961B1
S10BAB20626364656600FFFF37
S10BAB28008000000000400160
S90378D5AF
